{
  "_format": "hh-sol-artifact-1",
  "contractName": "AadhaarOTPConsumer",
  "sourceName": "contracts/AadhaarOTPConsumer.sol",
  "abi": [
    {
      "inputs": [
        {
          "internalType": "address",
          "name": "linkToken",
          "type": "address"
        },
        {
          "internalType": "address",
          "name": "_oracle",
          "type": "address"
        },
        {
          "internalType": "bytes32",
          "name": "_jobId",
          "type": "bytes32"
        },
        {
          "internalType": "uint256",
          "name": "_fee",
          "type": "uint256"
        }
      ],
      "stateMutability": "nonpayable",
      "type": "constructor"
    },
    {
      "anonymous": false,
      "inputs": [
        {
          "indexed": true,
          "internalType": "bytes32",
          "name": "id",
          "type": "bytes32"
        }
      ],
      "name": "ChainlinkCancelled",
      "type": "event"
    },
    {
      "anonymous": false,
      "inputs": [
        {
          "indexed": true,
          "internalType": "bytes32",
          "name": "id",
          "type": "bytes32"
        }
      ],
      "name": "ChainlinkFulfilled",
      "type": "event"
    },
    {
      "anonymous": false,
      "inputs": [
        {
          "indexed": true,
          "internalType": "bytes32",
          "name": "id",
          "type": "bytes32"
        }
      ],
      "name": "ChainlinkRequested",
      "type": "event"
    },
    {
      "anonymous": false,
      "inputs": [
        {
          "indexed": true,
          "internalType": "bytes32",
          "name": "requestId",
          "type": "bytes32"
        },
        {
          "indexed": false,
          "internalType": "string",
          "name": "aadhaar",
          "type": "string"
        },
        {
          "indexed": false,
          "internalType": "bytes32",
          "name": "otp",
          "type": "bytes32"
        }
      ],
      "name": "LogReceiveOTP",
      "type": "event"
    },
    {
      "anonymous": false,
      "inputs": [
        {
          "indexed": true,
          "internalType": "bytes32",
          "name": "requestId",
          "type": "bytes32"
        },
        {
          "indexed": false,
          "internalType": "string",
          "name": "aadhaar",
          "type": "string"
        }
      ],
      "name": "LogRequestOTP",
      "type": "event"
    },
    {
      "inputs": [
        {
          "internalType": "string",
          "name": "",
          "type": "string"
        }
      ],
      "name": "aadhaarVerified",
      "outputs": [
        {
          "internalType": "bool",
          "name": "",
          "type": "bool"
        }
      ],
      "stateMutability": "view",
      "type": "function"
    },
    {
      "inputs": [],
      "name": "fee",
      "outputs": [
        {
          "internalType": "uint256",
          "name": "",
          "type": "uint256"
        }
      ],
      "stateMutability": "view",
      "type": "function"
    },
    {
      "inputs": [
        {
          "internalType": "bytes32",
          "name": "requestId",
          "type": "bytes32"
        },
        {
          "internalType": "bytes32",
          "name": "otp",
          "type": "bytes32"
        }
      ],
      "name": "fulfill",
      "outputs": [],
      "stateMutability": "nonpayable",
      "type": "function"
    },
    {
      "inputs": [],
      "name": "jobId",
      "outputs": [
        {
          "internalType": "bytes32",
          "name": "",
          "type": "bytes32"
        }
      ],
      "stateMutability": "view",
      "type": "function"
    },
    {
      "inputs": [],
      "name": "oracle",
      "outputs": [
        {
          "internalType": "address",
          "name": "",
          "type": "address"
        }
      ],
      "stateMutability": "view",
      "type": "function"
    },
    {
      "inputs": [
        {
          "internalType": "bytes32",
          "name": "",
          "type": "bytes32"
        }
      ],
      "name": "pendingAadhaar",
      "outputs": [
        {
          "internalType": "string",
          "name": "",
          "type": "string"
        }
      ],
      "stateMutability": "view",
      "type": "function"
    },
    {
      "inputs": [
        {
          "internalType": "string",
          "name": "aadhaar",
          "type": "string"
        }
      ],
      "name": "requestOtp",
      "outputs": [
        {
          "internalType": "bytes32",
          "name": "",
          "type": "bytes32"
        }
      ],
      "stateMutability": "nonpayable",
      "type": "function"
    }
  ],
  "bytecode": "0x60e0604052600160045534801561001557600080fd5b50604051611307380380611307833981016040819052610034916100a0565b600280546001600160a01b0319166001600160a01b038616179055600380546001600160a01b0319166001600160a01b0385161790556001600160a01b0390921660805260a05260c052506100e3565b80516001600160a01b038116811461009b57600080fd5b919050565b600080600080608085870312156100b657600080fd5b6100bf85610084565b93506100cd60208601610084565b6040860151606090960151949790965092505050565b60805160a05160c0516111e16101266000396000818161018601526104d101526000818161013e015261041601526000818160ff01526104af01526111e16000f3fe608060405234801561001057600080fd5b506004361061007d5760003560e01c80637dc0d1d01161005b5780637dc0d1d0146100fa578063c2939d9714610139578063cc0f847e1461016e578063ddca3f431461018157600080fd5b8063042f2b6514610082578063277afc1a14610097578063626411c0146100da575b600080fd5b610095610090366004610c0e565b6101a8565b005b6100c56100a5366004610c46565b805160208183018101805160078252928201919093012091525460ff1681565b60405190151581526020015b60405180910390f35b6100ed6100e8366004610cf7565b610374565b6040516100d19190610d60565b6101217f000000000000000000000000000000000000000000000000000000000000000081565b6040516001600160a01b0390911681526020016100d1565b6101607f000000000000000000000000000000000000000000000000000000000000000081565b6040519081526020016100d1565b61016061017c366004610d73565b61040e565b6101607f000000000000000000000000000000000000000000000000000000000000000081565b60008281526005602052604090205482906001600160a01b031633146102265760405162461bcd60e51b815260206004820152602860248201527f536f75726365206d75737420626520746865206f7261636c65206f6620746865604482015267081c995c5d595cdd60c21b60648201526084015b60405180910390fd5b60008181526005602052604080822080546001600160a01b03191690555182917f7cc135e0cebb02c3480ae5d74d377283180a2601f8f644edf7987b009316c63a91a26000838152600660205260408120805461028290610de5565b80601f01602080910402602001604051908101604052809291908181526020018280546102ae90610de5565b80156102fb5780601f106102d0576101008083540402835291602001916102fb565b820191906000526020600020905b8154815290600101906020018083116102de57829003601f168201915b5050505050905060016007826040516103149190610e19565b908152604051908190036020018120805492151560ff199093169290921790915584907ff397c1055f40e5aa882ba48638fa0bd2bc25e78eaed5775ae7f1f9f51c31fd28906103669084908790610e35565b60405180910390a250505050565b6006602052600090815260409020805461038d90610de5565b80601f01602080910402602001604051908101604052809291908181526020018280546103b990610de5565b80156104065780601f106103db57610100808354040283529160200191610406565b820191906000526020600020905b8154815290600101906020018083116103e957829003601f168201915b505050505081565b6000806104437f00000000000000000000000000000000000000000000000000000000000000003063042f2b6560e01b610556565b90506104a86040518060400160405280600781526020016630b0b23430b0b960c91b81525085858080601f01602080910402602001604051908101604052809392919081815260200183838082843760009201919091525086949392505061057b9050565b60006104f57f0000000000000000000000000000000000000000000000000000000000000000837f000000000000000000000000000000000000000000000000000000000000000061059e565b6000818152600660205260409020909150610511858783610ea5565b50807fd9f6a7820da0d93cb4d8366f961c34c95177a8413f8ced9707170c375bbad0168686604051610544929190610f66565b60405180910390a29150505b92915050565b61055e610bd3565b610566610bd3565b61057281868686610631565b95945050505050565b608083015161058a9083610677565b60808301516105999082610677565b505050565b6004546000906105af816001610fab565b600455835160408086015160808701515191516000936320214ca360e11b936105e79386938493923092918a91600191602401610fbe565b60408051601f198184030181529190526020810180516001600160e01b03166001600160e01b03199093169290921790915290506106278683868461068e565b9695505050505050565b610639610bd3565b61064985608001516101006107ec565b50508284526001600160a01b03821660208501526001600160e01b031981166040850152835b949350505050565b6106848260038351610851565b6105998282610966565b6040516bffffffffffffffffffffffff193060601b1660208201526034810184905260009060540160408051808303601f1901815282825280516020918201206000818152600590925291812080546001600160a01b0319166001600160a01b038a1617905590925082917fb5e6e01e79f91267dc17b4e6314d5d4d03593d2ceee0fbb452b750bd70ea5af99190a2600254604051630200057560e51b81526001600160a01b0390911690634000aea09061075190889087908790600401611026565b6020604051808303816000875af1158015610770573d6000803e3d6000fd5b505050506040513d601f19601f82011682018060405250810190610794919061104d565b61066f5760405162461bcd60e51b815260206004820152602360248201527f756e61626c6520746f207472616e73666572416e6443616c6c20746f206f7261604482015262636c6560e81b606482015260840161021d565b60408051808201909152606081526000602082015261080c60208361106f565b156108345761081c60208361106f565b610827906020611091565b6108319083610fab565b91505b506020828101829052604080518085526000815290920101905290565b60178167ffffffffffffffff161161087c576108768360e0600585901b168317610994565b50505050565b60ff8167ffffffffffffffff16116108ba576108a3836018611fe0600586901b1617610994565b506108768367ffffffffffffffff831660016109b9565b61ffff8167ffffffffffffffff16116108f9576108e2836019611fe0600586901b1617610994565b506108768367ffffffffffffffff831660026109b9565b63ffffffff8167ffffffffffffffff161161093a5761092383601a611fe0600586901b1617610994565b506108768367ffffffffffffffff831660046109b9565b61094f83601b611fe0600586901b1617610994565b506108768367ffffffffffffffff831660086109b9565b60408051808201909152606081526000602082015261098d838460000151518485516109df565b9392505050565b60408051808201909152606081526000602082015261098d8384600001515184610ac9565b60408051808201909152606081526000602082015261066f848560000151518585610b24565b6040805180820190915260608152600060208201528251821115610a0257600080fd5b6020850151610a118386610fab565b1115610a4457610a4485610a3487602001518786610a2f9190610fab565b610ba5565b610a3f9060026110a4565b610bbc565b600080865180518760208301019350808887011115610a635787860182525b505050602084015b60208410610aa35780518252610a82602083610fab565b9150610a8f602082610fab565b9050610a9c602085611091565b9350610a6b565b51815160001960208690036101000a019081169019919091161790525083949350505050565b60408051808201909152606081526000602082015283602001518310610afe57610afe8485602001516002610a3f91906110a4565b8351805160208583010184815350808503610b1a576001810182525b5093949350505050565b6040805180820190915260608152600060208201526020850151610b488584610fab565b1115610b5c57610b5c85610a348685610fab565b60006001610b6c8461010061119f565b610b769190611091565b9050855183868201018583198251161781525080518487011115610b9a5783860181525b509495945050505050565b600081831115610bb6575081610550565b50919050565b8151610bc883836107ec565b506108768382610966565b6040805160a0810182526000808252602080830182905282840182905260608084018390528451808601909552845283015290608082015290565b60008060408385031215610c2157600080fd5b50508035926020909101359150565b634e487b7160e01b600052604160045260246000fd5b600060208284031215610c5857600080fd5b813567ffffffffffffffff80821115610c7057600080fd5b818401915084601f830112610c8457600080fd5b813581811115610c9657610c96610c30565b604051601f8201601f19908116603f01168101908382118183101715610cbe57610cbe610c30565b81604052828152876020848701011115610cd757600080fd5b826020860160208301376000928101602001929092525095945050505050565b600060208284031215610d0957600080fd5b5035919050565b60005b83811015610d2b578181015183820152602001610d13565b50506000910152565b60008151808452610d4c816020860160208601610d10565b601f01601f19169290920160200192915050565b60208152600061098d6020830184610d34565b60008060208385031215610d8657600080fd5b823567ffffffffffffffff80821115610d9e57600080fd5b818501915085601f830112610db257600080fd5b813581811115610dc157600080fd5b866020828501011115610dd357600080fd5b60209290920196919550909350505050565b600181811c90821680610df957607f821691505b602082108103610bb657634e487b7160e01b600052602260045260246000fd5b60008251610e2b818460208701610d10565b9190910192915050565b604081526000610e486040830185610d34565b90508260208301529392505050565b601f82111561059957600081815260208120601f850160051c81016020861015610e7e5750805b601f850160051c820191505b81811015610e9d57828155600101610e8a565b505050505050565b67ffffffffffffffff831115610ebd57610ebd610c30565b610ed183610ecb8354610de5565b83610e57565b6000601f841160018114610f055760008515610eed5750838201355b600019600387901b1c1916600186901b178355610f5f565b600083815260209020601f19861690835b82811015610f365786850135825560209485019460019092019101610f16565b5086821015610f535760001960f88860031b161c19848701351681555b505060018560011b0183555b5050505050565b60208152816020820152818360408301376000818301604090810191909152601f909201601f19160101919050565b634e487b7160e01b600052601160045260246000fd5b8082018082111561055057610550610f95565b6001600160a01b0389811682526020820189905260408201889052861660608201526001600160e01b03198516608082015260a0810184905260c0810183905261010060e0820181905260009061101783820185610d34565b9b9a5050505050505050505050565b60018060a01b03841681528260208201526060604082015260006105726060830184610d34565b60006020828403121561105f57600080fd5b8151801515811461098d57600080fd5b60008261108c57634e487b7160e01b600052601260045260246000fd5b500690565b8181038181111561055057610550610f95565b808202811582820484141761055057610550610f95565b600181815b808511156110f65781600019048211156110dc576110dc610f95565b808516156110e957918102915b93841c93908002906110c0565b509250929050565b60008261110d57506001610550565b8161111a57506000610550565b8160018114611130576002811461113a57611156565b6001915050610550565b60ff84111561114b5761114b610f95565b50506001821b610550565b5060208310610133831016604e8410600b8410161715611179575081810a610550565b61118383836110bb565b806000190482111561119757611197610f95565b029392505050565b600061098d83836110fe56fea26469706673582212204545f99ab669f33a91436e56829eba3d91cd403663f956f347e223a32387266b64736f6c63430008130033",
  "linkReferences": {},
  "deployedLinkReferences": {}
}