{
  "_format": "hh-sol-artifact-1",
  "contractName": "UserManagement",
  "sourceName": "contracts/UserManagement.sol",
  "abi": [
    {
      "inputs": [
        {
          "internalType": "address",
          "name": "rbacManager",
          "type": "address"
        }
      ],
      "stateMutability": "nonpayable",
      "type": "constructor"
    },
    {
      "anonymous": false,
      "inputs": [
        {
          "indexed": true,
          "internalType": "string",
          "name": "aadhaar",
          "type": "string"
        }
      ],
      "name": "PinChanged",
      "type": "event"
    },
    {
      "anonymous": false,
      "inputs": [
        {
          "indexed": true,
          "internalType": "string",
          "name": "aadhaar",
          "type": "string"
        },
        {
          "indexed": false,
          "internalType": "string",
          "name": "data",
          "type": "string"
        },
        {
          "indexed": false,
          "internalType": "string",
          "name": "docCID",
          "type": "string"
        }
      ],
      "name": "UserCreated",
      "type": "event"
    },
    {
      "anonymous": false,
      "inputs": [
        {
          "indexed": true,
          "internalType": "string",
          "name": "aadhaar",
          "type": "string"
        },
        {
          "indexed": false,
          "internalType": "string",
          "name": "data",
          "type": "string"
        },
        {
          "indexed": false,
          "internalType": "string",
          "name": "docCID",
          "type": "string"
        }
      ],
      "name": "UserUpdated",
      "type": "event"
    },
    {
      "inputs": [],
      "name": "ADMIN_ROLE",
      "outputs": [
        {
          "internalType": "bytes32",
          "name": "",
          "type": "bytes32"
        }
      ],
      "stateMutability": "view",
      "type": "function"
    },
    {
      "inputs": [
        {
          "internalType": "string",
          "name": "aadhaar",
          "type": "string"
        },
        {
          "internalType": "bytes32",
          "name": "oldPinHash",
          "type": "bytes32"
        },
        {
          "internalType": "bytes32",
          "name": "newPinHash",
          "type": "bytes32"
        }
      ],
      "name": "changePin",
      "outputs": [],
      "stateMutability": "nonpayable",
      "type": "function"
    },
    {
      "inputs": [
        {
          "internalType": "string",
          "name": "aadhaar",
          "type": "string"
        },
        {
          "internalType": "string",
          "name": "data",
          "type": "string"
        },
        {
          "internalType": "bytes32",
          "name": "pinHash",
          "type": "bytes32"
        },
        {
          "internalType": "string",
          "name": "docCID",
          "type": "string"
        }
      ],
      "name": "createUser",
      "outputs": [],
      "stateMutability": "nonpayable",
      "type": "function"
    },
    {
      "inputs": [
        {
          "internalType": "string",
          "name": "aadhaar",
          "type": "string"
        }
      ],
      "name": "getUser",
      "outputs": [
        {
          "internalType": "string",
          "name": "",
          "type": "string"
        },
        {
          "internalType": "bytes32",
          "name": "",
          "type": "bytes32"
        },
        {
          "internalType": "string",
          "name": "",
          "type": "string"
        }
      ],
      "stateMutability": "view",
      "type": "function"
    },
    {
      "inputs": [],
      "name": "rbac",
      "outputs": [
        {
          "internalType": "contract IRBAC",
          "name": "",
          "type": "address"
        }
      ],
      "stateMutability": "view",
      "type": "function"
    },
    {
      "inputs": [
        {
          "internalType": "string",
          "name": "aadhaar",
          "type": "string"
        },
        {
          "internalType": "string",
          "name": "newData",
          "type": "string"
        },
        {
          "internalType": "string",
          "name": "newDocCID",
          "type": "string"
        }
      ],
      "name": "updateUser",
      "outputs": [],
      "stateMutability": "nonpayable",
      "type": "function"
    }
  ],
  "bytecode": "0x60a060405234801561001057600080fd5b50604051610f77380380610f7783398101604081905261002f9161009a565b6001600160a01b0381166100895760405162461bcd60e51b815260206004820152601460248201527f496e76616c696420524241432061646472657373000000000000000000000000604482015260640160405180910390fd5b6001600160a01b03166080526100ca565b6000602082840312156100ac57600080fd5b81516001600160a01b03811681146100c357600080fd5b9392505050565b608051610e7e6100f96000396000818160e20152818161031d0152818161050101526106870152610e7e6000f3fe608060405234801561001057600080fd5b50600436106100625760003560e01c806331feb6711461006757806360903be61461009257806375b238fc146100a757806387b5a888146100ca578063a8ecc7f1146100dd578063ac8b08911461011c575b600080fd5b61007a6100753660046108fa565b61012f565b60405161008993929190610982565b60405180910390f35b6100a56100a03660046109b7565b6102f4565b005b6100bc600080516020610e2983398151915281565b604051908152602001610089565b6100a56100d8366004610a51565b6104d8565b6101047f000000000000000000000000000000000000000000000000000000000000000081565b6040516001600160a01b039091168152602001610089565b6100a561012a366004610aa2565b61065e565b6060600060606000808686604051610148929190610b46565b908152602001604051809103902060405180606001604052908160008201805461017190610b56565b80601f016020809104026020016040519081016040528092919081815260200182805461019d90610b56565b80156101ea5780601f106101bf576101008083540402835291602001916101ea565b820191906000526020600020905b8154815290600101906020018083116101cd57829003601f168201915b505050505081526020016001820154815260200160028201805461020d90610b56565b80601f016020809104026020016040519081016040528092919081815260200182805461023990610b56565b80156102865780601f1061025b57610100808354040283529160200191610286565b820191906000526020600020905b81548152906001019060200180831161026957829003601f168201915b50505050508152505090508060000151516000036102da5760405162461bcd60e51b815260206004820152600c60248201526b55736572206d697373696e6760a01b60448201526064015b60405180910390fd5b805160208201516040909201519097919650945092505050565b604051632474521560e21b8152600080516020610e2983398151915260048201523360248201527f00000000000000000000000000000000000000000000000000000000000000006001600160a01b0316906391d1485490604401602060405180830381865afa15801561036c573d6000803e3d6000fd5b505050506040513d601f19601f820116820180604052508101906103909190610b90565b6103ac5760405162461bcd60e51b81526004016102d190610bb9565b600086866040516103be929190610b46565b90815260405190819003602001902080546103d890610b56565b90506000036104185760405162461bcd60e51b815260206004820152600c60248201526b55736572206d697373696e6760a01b60448201526064016102d1565b83836000888860405161042c929190610b46565b90815260405190819003602001902091610447919083610c4c565b5081816000888860405161045c929190610b46565b9081526020016040518091039020600201918261047a929190610c4c565b50858560405161048b929190610b46565b60405180910390207f891043d2e94b4aef9153ad13cfd5726c8d60b0f025da0a8fd7160d875808192a858585856040516104c89493929190610d36565b60405180910390a2505050505050565b604051632474521560e21b8152600080516020610e2983398151915260048201523360248201527f00000000000000000000000000000000000000000000000000000000000000006001600160a01b0316906391d1485490604401602060405180830381865afa158015610550573d6000803e3d6000fd5b505050506040513d601f19601f820116820180604052508101906105749190610b90565b6105905760405162461bcd60e51b81526004016102d190610bb9565b81600085856040516105a3929190610b46565b908152602001604051809103902060010154146105f25760405162461bcd60e51b815260206004820152600d60248201526c24b731b7b93932b1ba102824a760991b60448201526064016102d1565b8060008585604051610605929190610b46565b908152604051908190036020018120600101919091556106289085908590610b46565b604051908190038120907fe5724c7b82dd9580eae64194f8e357be165dab1417b58ac1521d9c7f0591ef7e90600090a250505050565b604051632474521560e21b8152600080516020610e2983398151915260048201523360248201527f00000000000000000000000000000000000000000000000000000000000000006001600160a01b0316906391d1485490604401602060405180830381865afa1580156106d6573d6000803e3d6000fd5b505050506040513d601f19601f820116820180604052508101906106fa9190610b90565b6107165760405162461bcd60e51b81526004016102d190610bb9565b60008787604051610728929190610b46565b908152604051908190036020019020805461074290610b56565b15905061077f5760405162461bcd60e51b815260206004820152600b60248201526a557365722065786973747360a81b60448201526064016102d1565b604051806060016040528086868080601f016020809104026020016040519081016040528093929190818152602001838380828437600092019190915250505090825250602080820186905260408051601f860183900483028101830182528581529201919085908590819084018382808284376000920182905250939094525050604051909150610814908a908a90610b46565b908152604051908190036020019020815181906108319082610d68565b5060208201516001820155604082015160028201906108509082610d68565b5050604051610863915088908890610b46565b60405180910390207fdd75d3192535501dcaeaed99fb80f0f968daa8fb6d037d943472244718aa4290868685856040516108a09493929190610d36565b60405180910390a250505050505050565b60008083601f8401126108c357600080fd5b50813567ffffffffffffffff8111156108db57600080fd5b6020830191508360208285010111156108f357600080fd5b9250929050565b6000806020838503121561090d57600080fd5b823567ffffffffffffffff81111561092457600080fd5b610930858286016108b1565b90969095509350505050565b6000815180845260005b8181101561096257602081850181015186830182015201610946565b506000602082860101526020601f19601f83011685010191505092915050565b606081526000610995606083018661093c565b84602084015282810360408401526109ad818561093c565b9695505050505050565b600080600080600080606087890312156109d057600080fd5b863567ffffffffffffffff808211156109e857600080fd5b6109f48a838b016108b1565b90985096506020890135915080821115610a0d57600080fd5b610a198a838b016108b1565b90965094506040890135915080821115610a3257600080fd5b50610a3f89828a016108b1565b979a9699509497509295939492505050565b60008060008060608587031215610a6757600080fd5b843567ffffffffffffffff811115610a7e57600080fd5b610a8a878288016108b1565b90989097506020870135966040013595509350505050565b60008060008060008060006080888a031215610abd57600080fd5b873567ffffffffffffffff80821115610ad557600080fd5b610ae18b838c016108b1565b909950975060208a0135915080821115610afa57600080fd5b610b068b838c016108b1565b909750955060408a0135945060608a0135915080821115610b2657600080fd5b50610b338a828b016108b1565b989b979a50959850939692959293505050565b8183823760009101908152919050565b600181811c90821680610b6a57607f821691505b602082108103610b8a57634e487b7160e01b600052602260045260246000fd5b50919050565b600060208284031215610ba257600080fd5b81518015158114610bb257600080fd5b9392505050565b6020808252601490820152735265737472696374656420746f2061646d696e7360601b604082015260600190565b634e487b7160e01b600052604160045260246000fd5b601f821115610c4757600081815260208120601f850160051c81016020861015610c245750805b601f850160051c820191505b81811015610c4357828155600101610c30565b5050505b505050565b67ffffffffffffffff831115610c6457610c64610be7565b610c7883610c728354610b56565b83610bfd565b6000601f841160018114610cac5760008515610c945750838201355b600019600387901b1c1916600186901b178355610d06565b600083815260209020601f19861690835b82811015610cdd5786850135825560209485019460019092019101610cbd565b5086821015610cfa5760001960f88860031b161c19848701351681555b505060018560011b0183555b5050505050565b81835281816020850137506000828201602090810191909152601f909101601f19169091010190565b604081526000610d4a604083018688610d0d565b8281036020840152610d5d818587610d0d565b979650505050505050565b815167ffffffffffffffff811115610d8257610d82610be7565b610d9681610d908454610b56565b84610bfd565b602080601f831160018114610dcb5760008415610db35750858301515b600019600386901b1c1916600185901b178555610c43565b600085815260208120601f198616915b82811015610dfa57888601518255948401946001909101908401610ddb565b5085821015610e185787850151600019600388901b60f8161c191681555b5050505050600190811b0190555056fea49807205ce4d355092ef5a8a18f56e8913cf4a201fbe287825b095693c21775a2646970667358221220f6e116945dbd1e86f2be9423f2da403ba04821c18aed2e2336eaab87e1b22ceb64736f6c63430008110033",
  "linkReferences": {},
  "deployedLinkReferences": {}
}