{
  "_format": "hh-sol-artifact-1",
  "contractName": "UserManagement",
  "sourceName": "contracts/UserManagement.sol",
  "abi": [
    {
      "inputs": [
        {
          "internalType": "address",
          "name": "rbacManager",
          "type": "address"
        },
        {
          "internalType": "address",
          "name": "_otpConsumer",
          "type": "address"
        }
      ],
      "stateMutability": "nonpayable",
      "type": "constructor"
    },
    {
      "anonymous": false,
      "inputs": [
        {
          "indexed": true,
          "internalType": "string",
          "name": "aadhaar",
          "type": "string"
        }
      ],
      "name": "PinChanged",
      "type": "event"
    },
    {
      "anonymous": false,
      "inputs": [
        {
          "indexed": true,
          "internalType": "string",
          "name": "aadhaar",
          "type": "string"
        },
        {
          "indexed": false,
          "internalType": "string",
          "name": "data",
          "type": "string"
        },
        {
          "indexed": false,
          "internalType": "string",
          "name": "docCID",
          "type": "string"
        }
      ],
      "name": "UserCreated",
      "type": "event"
    },
    {
      "anonymous": false,
      "inputs": [
        {
          "indexed": true,
          "internalType": "string",
          "name": "aadhaar",
          "type": "string"
        },
        {
          "indexed": false,
          "internalType": "string",
          "name": "data",
          "type": "string"
        },
        {
          "indexed": false,
          "internalType": "string",
          "name": "docCID",
          "type": "string"
        }
      ],
      "name": "UserUpdated",
      "type": "event"
    },
    {
      "inputs": [
        {
          "internalType": "string",
          "name": "aadhaar",
          "type": "string"
        },
        {
          "internalType": "bytes32",
          "name": "oldPinHash",
          "type": "bytes32"
        },
        {
          "internalType": "bytes32",
          "name": "newPinHash",
          "type": "bytes32"
        }
      ],
      "name": "changePin",
      "outputs": [],
      "stateMutability": "nonpayable",
      "type": "function"
    },
    {
      "inputs": [
        {
          "internalType": "string",
          "name": "aadhaar",
          "type": "string"
        },
        {
          "internalType": "string",
          "name": "data",
          "type": "string"
        },
        {
          "internalType": "bytes32",
          "name": "pinHash",
          "type": "bytes32"
        },
        {
          "internalType": "string",
          "name": "docCID",
          "type": "string"
        }
      ],
      "name": "createUser",
      "outputs": [],
      "stateMutability": "nonpayable",
      "type": "function"
    },
    {
      "inputs": [
        {
          "internalType": "string",
          "name": "aadhaar",
          "type": "string"
        }
      ],
      "name": "getUser",
      "outputs": [
        {
          "internalType": "string",
          "name": "",
          "type": "string"
        },
        {
          "internalType": "bytes32",
          "name": "",
          "type": "bytes32"
        },
        {
          "internalType": "string",
          "name": "",
          "type": "string"
        }
      ],
      "stateMutability": "view",
      "type": "function"
    },
    {
      "inputs": [],
      "name": "otpConsumer",
      "outputs": [
        {
          "internalType": "contract IOTPConsumer",
          "name": "",
          "type": "address"
        }
      ],
      "stateMutability": "view",
      "type": "function"
    },
    {
      "inputs": [],
      "name": "rbac",
      "outputs": [
        {
          "internalType": "contract IRBAC",
          "name": "",
          "type": "address"
        }
      ],
      "stateMutability": "view",
      "type": "function"
    },
    {
      "inputs": [
        {
          "internalType": "string",
          "name": "aadhaar",
          "type": "string"
        },
        {
          "internalType": "string",
          "name": "newData",
          "type": "string"
        },
        {
          "internalType": "string",
          "name": "newDocCID",
          "type": "string"
        }
      ],
      "name": "updateUser",
      "outputs": [],
      "stateMutability": "nonpayable",
      "type": "function"
    }
  ],
  "bytecode": "0x60c060405234801561001057600080fd5b50604051620013283803806200132883398101604081905261003191610115565b6001600160a01b03821661008c5760405162461bcd60e51b815260206004820152601460248201527f496e76616c69642052424143206164647265737300000000000000000000000060448201526064015b60405180910390fd5b6001600160a01b0381166100e25760405162461bcd60e51b815260206004820152601360248201527f496e76616c6964204f54502061646472657373000000000000000000000000006044820152606401610083565b6001600160a01b039182166080521660a052610148565b80516001600160a01b038116811461011057600080fd5b919050565b6000806040838503121561012857600080fd5b610131836100f9565b915061013f602084016100f9565b90509250929050565b60805160a05161118b6200019d6000396000818160ac015261091801526000818160fe0152818161031b015281816103c9015281816105a801528181610656015281816107d70152610885015261118b6000f3fe608060405234801561001057600080fd5b50600436106100625760003560e01c806331feb6711461006757806360903be61461009257806380c924d1146100a757806387b5a888146100e6578063a8ecc7f1146100f9578063ac8b089114610120575b600080fd5b61007a610075366004610bcf565b610133565b60405161008993929190610c57565b60405180910390f35b6100a56100a0366004610c8c565b6102f8565b005b6100ce7f000000000000000000000000000000000000000000000000000000000000000081565b6040516001600160a01b039091168152602001610089565b6100a56100f4366004610d26565b610585565b6100ce7f000000000000000000000000000000000000000000000000000000000000000081565b6100a561012e366004610d77565b6107b4565b606060006060600080868660405161014c929190610e1b565b908152602001604051809103902060405180606001604052908160008201805461017590610e2b565b80601f01602080910402602001604051908101604052809291908181526020018280546101a190610e2b565b80156101ee5780601f106101c3576101008083540402835291602001916101ee565b820191906000526020600020905b8154815290600101906020018083116101d157829003601f168201915b505050505081526020016001820154815260200160028201805461021190610e2b565b80601f016020809104026020016040519081016040528092919081815260200182805461023d90610e2b565b801561028a5780601f1061025f5761010080835404028352916020019161028a565b820191906000526020600020905b81548152906001019060200180831161026d57829003601f168201915b50505050508152505090508060000151516000036102de5760405162461bcd60e51b815260206004820152600c60248201526b55736572206d697373696e6760a01b60448201526064015b60405180910390fd5b805160208201516040909201519097919650945092505050565b6040516305fcc08b60e41b8152600080356001600160e01b0319166004830152907f00000000000000000000000000000000000000000000000000000000000000006001600160a01b031690635fcc08b090602401602060405180830381865afa15801561036a573d6000803e3d6000fd5b505050506040513d601f19601f8201168201806040525081019061038e9190610e65565b9050806103ad5760405162461bcd60e51b81526004016102d590610e7e565b604051632474521560e21b8152600481018290523360248201527f00000000000000000000000000000000000000000000000000000000000000006001600160a01b0316906391d1485490604401602060405180830381865afa158015610418573d6000803e3d6000fd5b505050506040513d601f19601f8201168201806040525081019061043c9190610ea8565b6104585760405162461bcd60e51b81526004016102d590610ed1565b6000878760405161046a929190610e1b565b908152604051908190036020019020805461048490610e2b565b90506000036104c45760405162461bcd60e51b815260206004820152600c60248201526b55736572206d697373696e6760a01b60448201526064016102d5565b8484600089896040516104d8929190610e1b565b908152604051908190036020019020916104f3919083610f5d565b50828260008989604051610508929190610e1b565b90815260200160405180910390206002019182610526929190610f5d565b508686604051610537929190610e1b565b60405180910390207f891043d2e94b4aef9153ad13cfd5726c8d60b0f025da0a8fd7160d875808192a868686866040516105749493929190611047565b60405180910390a250505050505050565b6040516305fcc08b60e41b8152600080356001600160e01b0319166004830152907f00000000000000000000000000000000000000000000000000000000000000006001600160a01b031690635fcc08b090602401602060405180830381865afa1580156105f7573d6000803e3d6000fd5b505050506040513d601f19601f8201168201806040525081019061061b9190610e65565b90508061063a5760405162461bcd60e51b81526004016102d590610e7e565b604051632474521560e21b8152600481018290523360248201527f00000000000000000000000000000000000000000000000000000000000000006001600160a01b0316906391d1485490604401602060405180830381865afa1580156106a5573d6000803e3d6000fd5b505050506040513d601f19601f820116820180604052508101906106c99190610ea8565b6106e55760405162461bcd60e51b81526004016102d590610ed1565b82600086866040516106f8929190610e1b565b908152602001604051809103902060010154146107475760405162461bcd60e51b815260206004820152600d60248201526c24b731b7b93932b1ba102824a760991b60448201526064016102d5565b816000868660405161075a929190610e1b565b9081526040519081900360200181206001019190915561077d9086908690610e1b565b604051908190038120907fe5724c7b82dd9580eae64194f8e357be165dab1417b58ac1521d9c7f0591ef7e90600090a25050505050565b6040516305fcc08b60e41b8152600080356001600160e01b0319166004830152907f00000000000000000000000000000000000000000000000000000000000000006001600160a01b031690635fcc08b090602401602060405180830381865afa158015610826573d6000803e3d6000fd5b505050506040513d601f19601f8201168201806040525081019061084a9190610e65565b9050806108695760405162461bcd60e51b81526004016102d590610e7e565b604051632474521560e21b8152600481018290523360248201527f00000000000000000000000000000000000000000000000000000000000000006001600160a01b0316906391d1485490604401602060405180830381865afa1580156108d4573d6000803e3d6000fd5b505050506040513d601f19601f820116820180604052508101906108f89190610ea8565b6109145760405162461bcd60e51b81526004016102d590610ed1565b87877f00000000000000000000000000000000000000000000000000000000000000006001600160a01b031663277afc1a83836040518363ffffffff1660e01b8152600401610964929190611079565b602060405180830381865afa158015610981573d6000803e3d6000fd5b505050506040513d601f19601f820116820180604052508101906109a59190610ea8565b6109e85760405162461bcd60e51b81526020600482015260146024820152731058591a18585c881b9bdd081d995c9a599a595960621b60448201526064016102d5565b60008a8a6040516109fa929190610e1b565b9081526040519081900360200190208054610a1490610e2b565b159050610a515760405162461bcd60e51b815260206004820152600b60248201526a557365722065786973747360a81b60448201526064016102d5565b604051806060016040528089898080601f016020809104026020016040519081016040528093929190818152602001838380828437600092019190915250505090825250602080820189905260408051601f890183900483028101830182528881529201919088908890819084018382808284376000920182905250939094525050604051909150610ae6908d908d90610e1b565b90815260405190819003602001902081518190610b039082611095565b506020820151600182015560408201516002820190610b229082611095565b5050604051610b3591508b908b90610e1b565b60405180910390207fdd75d3192535501dcaeaed99fb80f0f968daa8fb6d037d943472244718aa429089898888604051610b729493929190611047565b60405180910390a250505050505050505050565b60008083601f840112610b9857600080fd5b50813567ffffffffffffffff811115610bb057600080fd5b602083019150836020828501011115610bc857600080fd5b9250929050565b60008060208385031215610be257600080fd5b823567ffffffffffffffff811115610bf957600080fd5b610c0585828601610b86565b90969095509350505050565b6000815180845260005b81811015610c3757602081850181015186830182015201610c1b565b506000602082860101526020601f19601f83011685010191505092915050565b606081526000610c6a6060830186610c11565b8460208401528281036040840152610c828185610c11565b9695505050505050565b60008060008060008060608789031215610ca557600080fd5b863567ffffffffffffffff80821115610cbd57600080fd5b610cc98a838b01610b86565b90985096506020890135915080821115610ce257600080fd5b610cee8a838b01610b86565b90965094506040890135915080821115610d0757600080fd5b50610d1489828a01610b86565b979a9699509497509295939492505050565b60008060008060608587031215610d3c57600080fd5b843567ffffffffffffffff811115610d5357600080fd5b610d5f87828801610b86565b90989097506020870135966040013595509350505050565b60008060008060008060006080888a031215610d9257600080fd5b873567ffffffffffffffff80821115610daa57600080fd5b610db68b838c01610b86565b909950975060208a0135915080821115610dcf57600080fd5b610ddb8b838c01610b86565b909750955060408a0135945060608a0135915080821115610dfb57600080fd5b50610e088a828b01610b86565b989b979a50959850939692959293505050565b8183823760009101908152919050565b600181811c90821680610e3f57607f821691505b602082108103610e5f57634e487b7160e01b600052602260045260246000fd5b50919050565b600060208284031215610e7757600080fd5b5051919050565b60208082526010908201526f139bc81c9bdb1948185cdcda59db995960821b604082015260600190565b600060208284031215610eba57600080fd5b81518015158114610eca57600080fd5b9392505050565b6020808252600d908201526c1058d8d95cdcc819195b9a5959609a1b604082015260600190565b634e487b7160e01b600052604160045260246000fd5b601f821115610f5857600081815260208120601f850160051c81016020861015610f355750805b601f850160051c820191505b81811015610f5457828155600101610f41565b5050505b505050565b67ffffffffffffffff831115610f7557610f75610ef8565b610f8983610f838354610e2b565b83610f0e565b6000601f841160018114610fbd5760008515610fa55750838201355b600019600387901b1c1916600186901b178355611017565b600083815260209020601f19861690835b82811015610fee5786850135825560209485019460019092019101610fce565b508682101561100b5760001960f88860031b161c19848701351681555b505060018560011b0183555b5050505050565b81835281816020850137506000828201602090810191909152601f909101601f19169091010190565b60408152600061105b60408301868861101e565b828103602084015261106e81858761101e565b979650505050505050565b60208152600061108d60208301848661101e565b949350505050565b815167ffffffffffffffff8111156110af576110af610ef8565b6110c3816110bd8454610e2b565b84610f0e565b602080601f8311600181146110f857600084156110e05750858301515b600019600386901b1c1916600185901b178555610f54565b600085815260208120601f198616915b8281101561112757888601518255948401946001909101908401611108565b50858210156111455787850151600019600388901b60f8161c191681555b5050505050600190811b0190555056fea2646970667358221220ab59b0da32cf5f4af1357feace24ed30bf5c5deeabb23b9fd11f362aefb4bb3b64736f6c63430008130033",
  "linkReferences": {},
  "deployedLinkReferences": {}
}