{
  "_format": "hh-sol-artifact-1",
  "contractName": "GenericDataStorage",
  "sourceName": "contracts/GenericDataStorage.sol",
  "abi": [
    {
      "anonymous": false,
      "inputs": [
        {
          "indexed": false,
          "internalType": "string",
          "name": "collection",
          "type": "string"
        },
        {
          "indexed": false,
          "internalType": "string",
          "name": "data",
          "type": "string"
        }
      ],
      "name": "GenericDataCreated",
      "type": "event"
    },
    {
      "anonymous": false,
      "inputs": [
        {
          "indexed": false,
          "internalType": "string",
          "name": "collection",
          "type": "string"
        },
        {
          "indexed": false,
          "internalType": "string",
          "name": "newData",
          "type": "string"
        }
      ],
      "name": "GenericDataUpdated",
      "type": "event"
    },
    {
      "inputs": [
        {
          "internalType": "string",
          "name": "collectionName",
          "type": "string"
        },
        {
          "internalType": "string",
          "name": "data",
          "type": "string"
        }
      ],
      "name": "createData",
      "outputs": [],
      "stateMutability": "nonpayable",
      "type": "function"
    },
    {
      "inputs": [
        {
          "internalType": "string",
          "name": "collectionName",
          "type": "string"
        }
      ],
      "name": "getData",
      "outputs": [
        {
          "internalType": "string",
          "name": "",
          "type": "string"
        }
      ],
      "stateMutability": "view",
      "type": "function"
    },
    {
      "inputs": [
        {
          "internalType": "string",
          "name": "collectionName",
          "type": "string"
        },
        {
          "internalType": "string",
          "name": "newData",
          "type": "string"
        }
      ],
      "name": "updateData",
      "outputs": [],
      "stateMutability": "nonpayable",
      "type": "function"
    }
  ],
  "bytecode": "0x6080604052348015600f57600080fd5b5061056c8061001f6000396000f3fe608060405234801561001057600080fd5b50600436106100415760003560e01c80635e9529ee14610046578063ae55c8881461005b578063bddbb02314610084575b600080fd5b61005961005436600461026b565b610097565b005b61006e6100693660046102dc565b61010a565b60405161007b919061031e565b60405180910390f35b61005961009236600461026b565b6101bd565b8181600086866040516100ab92919061036c565b908152602001604051809103902091826100c692919061041b565b507ff679b4639628e119251f2e89c9af6c34ccfcf998bcd22f278759f90dc877f831848484846040516100fc9493929190610504565b60405180910390a150505050565b60606000838360405161011e92919061036c565b9081526020016040518091039020805461013790610392565b80601f016020809104026020016040519081016040528092919081815260200182805461016390610392565b80156101b05780601f10610185576101008083540402835291602001916101b0565b820191906000526020600020905b81548152906001019060200180831161019357829003601f168201915b5050505050905092915050565b8181600086866040516101d192919061036c565b908152602001604051809103902091826101ec92919061041b565b507f88364a4b911c5c08ee73e5fdf586b60da2bbf4dbf6988442d797bba7847caad1848484846040516100fc9493929190610504565b60008083601f84011261023457600080fd5b50813567ffffffffffffffff81111561024c57600080fd5b60208301915083602082850101111561026457600080fd5b9250929050565b6000806000806040858703121561028157600080fd5b843567ffffffffffffffff81111561029857600080fd5b6102a487828801610222565b909550935050602085013567ffffffffffffffff8111156102c457600080fd5b6102d087828801610222565b95989497509550505050565b600080602083850312156102ef57600080fd5b823567ffffffffffffffff81111561030657600080fd5b61031285828601610222565b90969095509350505050565b602081526000825180602084015260005b8181101561034c576020818601810151604086840101520161032f565b506000604082850101526040601f19601f83011684010191505092915050565b8183823760009101908152919050565b634e487b7160e01b600052604160045260246000fd5b600181811c908216806103a657607f821691505b6020821081036103c657634e487b7160e01b600052602260045260246000fd5b50919050565b601f82111561041657806000526020600020601f840160051c810160208510156103f35750805b601f840160051c820191505b8181101561041357600081556001016103ff565b50505b505050565b67ffffffffffffffff8311156104335761043361037c565b610447836104418354610392565b836103cc565b6000601f84116001811461047b57600085156104635750838201355b600019600387901b1c1916600186901b178355610413565b600083815260209020601f19861690835b828110156104ac578685013582556020948501946001909201910161048c565b50868210156104c95760001960f88860031b161c19848701351681555b505060018560011b0183555050505050565b81835281816020850137506000828201602090810191909152601f909101601f19169091010190565b6040815260006105186040830186886104db565b828103602084015261052b8185876104db565b97965050505050505056fea26469706673582212204a1ec7109f9cef07af998392674a64e77523d395319d83a5d2ec222c36070f9064736f6c634300081c0033",
  "linkReferences": {},
  "deployedLinkReferences": {}
}