{
  "_format": "hh-sol-artifact-1",
  "contractName": "LoanSchemeManagement",
  "sourceName": "contracts/LoanSchemeManagement.sol",
  "abi": [
    {
      "anonymous": false,
      "inputs": [
        {
          "indexed": false,
          "internalType": "uint256",
          "name": "schemeId",
          "type": "uint256"
        },
        {
          "indexed": false,
          "internalType": "string",
          "name": "schemeData",
          "type": "string"
        }
      ],
      "name": "LoanSchemeCreated",
      "type": "event"
    },
    {
      "anonymous": false,
      "inputs": [
        {
          "indexed": false,
          "internalType": "uint256",
          "name": "schemeId",
          "type": "uint256"
        },
        {
          "indexed": false,
          "internalType": "string",
          "name": "newData",
          "type": "string"
        }
      ],
      "name": "LoanSchemeUpdated",
      "type": "event"
    },
    {
      "inputs": [
        {
          "internalType": "string",
          "name": "schemeData",
          "type": "string"
        }
      ],
      "name": "createLoanScheme",
      "outputs": [
        {
          "internalType": "uint256",
          "name": "",
          "type": "uint256"
        }
      ],
      "stateMutability": "nonpayable",
      "type": "function"
    },
    {
      "inputs": [
        {
          "internalType": "uint256",
          "name": "schemeId",
          "type": "uint256"
        }
      ],
      "name": "getLoanScheme",
      "outputs": [
        {
          "internalType": "string",
          "name": "",
          "type": "string"
        }
      ],
      "stateMutability": "view",
      "type": "function"
    },
    {
      "inputs": [
        {
          "internalType": "uint256",
          "name": "schemeId",
          "type": "uint256"
        },
        {
          "internalType": "string",
          "name": "newSchemeData",
          "type": "string"
        }
      ],
      "name": "updateLoanScheme",
      "outputs": [],
      "stateMutability": "nonpayable",
      "type": "function"
    }
  ],
  "bytecode": "0x608060405260018055348015601357600080fd5b506106f4806100236000396000f3fe608060405234801561001057600080fd5b50600436106100415760003560e01c8063607265d514610046578063dffada711461006f578063f9fa1fac14610084575b600080fd5b610059610054366004610305565b6100a5565b604051610066919061031e565b60405180910390f35b61008261007d3660046103b5565b61019f565b005b610097610092366004610401565b61024e565b604051908152602001610066565b60606000821180156100b8575060015482105b6101015760405162461bcd60e51b8152602060048201526015602482015274131bd85b8814d8da195b59481b9bdd08195e1a5cdd605a1b60448201526064015b60405180910390fd5b6000828152602081905260409020805461011a90610443565b80601f016020809104026020016040519081016040528092919081815260200182805461014690610443565b80156101935780601f1061016857610100808354040283529160200191610193565b820191906000526020600020905b81548152906001019060200180831161017657829003601f168201915b50505050509050919050565b6000831180156101b0575060015483105b6101f45760405162461bcd60e51b8152602060048201526015602482015274131bd85b8814d8da195b59481b9bdd08195e1a5cdd605a1b60448201526064016100f8565b600083815260208190526040902061020d8284836104e2565b507ff8bbb5c7679029878eec98668349ba6bd3ea12954abed3844121dadff2cd2277838383604051610241939291906105a2565b60405180910390a1505050565b600154604080516020601f8501819004810282018301835281018481526000939282919087908790819085018382808284376000920182905250939094525050838152602081905260409020825190915081906102ab90826105d8565b505060018054915060006102be83610697565b91905055507fad21b1f047d01b962f404e8e96e26ed8f0606e36e99a5fd1eaf8e34d5ca268a88185856040516102f6939291906105a2565b60405180910390a19392505050565b60006020828403121561031757600080fd5b5035919050565b602081526000825180602084015260005b8181101561034c576020818601810151604086840101520161032f565b506000604082850101526040601f19601f83011684010191505092915050565b60008083601f84011261037e57600080fd5b50813567ffffffffffffffff81111561039657600080fd5b6020830191508360208285010111156103ae57600080fd5b9250929050565b6000806000604084860312156103ca57600080fd5b83359250602084013567ffffffffffffffff8111156103e857600080fd5b6103f48682870161036c565b9497909650939450505050565b6000806020838503121561041457600080fd5b823567ffffffffffffffff81111561042b57600080fd5b6104378582860161036c565b90969095509350505050565b600181811c9082168061045757607f821691505b60208210810361047757634e487b7160e01b600052602260045260246000fd5b50919050565b634e487b7160e01b600052604160045260246000fd5b601f8211156104dd57806000526020600020601f840160051c810160208510156104ba5750805b601f840160051c820191505b818110156104da57600081556001016104c6565b50505b505050565b67ffffffffffffffff8311156104fa576104fa61047d565b61050e836105088354610443565b83610493565b6000601f841160018114610542576000851561052a5750838201355b600019600387901b1c1916600186901b1783556104da565b600083815260209020601f19861690835b828110156105735786850135825560209485019460019092019101610553565b50868210156105905760001960f88860031b161c19848701351681555b505060018560011b0183555050505050565b83815260406020820152816040820152818360608301376000818301606090810191909152601f909201601f1916010192915050565b815167ffffffffffffffff8111156105f2576105f261047d565b610606816106008454610443565b84610493565b6020601f82116001811461063a57600083156106225750848201515b600019600385901b1c1916600184901b1784556104da565b600084815260208120601f198516915b8281101561066a578785015182556020948501946001909201910161064a565b50848210156106885786840151600019600387901b60f8161c191681555b50505050600190811b01905550565b6000600182016106b757634e487b7160e01b600052601160045260246000fd5b506001019056fea2646970667358221220b0901af4ae8d3a20814eced60a4d85890b82203c0c1ff83ff787f61abc1bf99b64736f6c634300081c0033",
  "linkReferences": {},
  "deployedLinkReferences": {}
}