{
  "_format": "hh-sol-artifact-1",
  "contractName": "LoanManagement",
  "sourceName": "contracts/LoanManagement.sol",
  "abi": [
    {
      "anonymous": false,
      "inputs": [
        {
          "indexed": true,
          "internalType": "string",
          "name": "aadhaar",
          "type": "string"
        },
        {
          "indexed": false,
          "internalType": "uint256",
          "name": "loanIndex",
          "type": "uint256"
        },
        {
          "indexed": false,
          "internalType": "string",
          "name": "loanData",
          "type": "string"
        }
      ],
      "name": "LoanCreated",
      "type": "event"
    },
    {
      "anonymous": false,
      "inputs": [
        {
          "indexed": true,
          "internalType": "string",
          "name": "aadhaar",
          "type": "string"
        },
        {
          "indexed": false,
          "internalType": "uint256",
          "name": "loanIndex",
          "type": "uint256"
        },
        {
          "indexed": false,
          "internalType": "string",
          "name": "newData",
          "type": "string"
        }
      ],
      "name": "LoanUpdated",
      "type": "event"
    },
    {
      "inputs": [
        {
          "internalType": "string",
          "name": "aadhaar",
          "type": "string"
        },
        {
          "internalType": "string",
          "name": "loanData",
          "type": "string"
        }
      ],
      "name": "createLoan",
      "outputs": [],
      "stateMutability": "nonpayable",
      "type": "function"
    },
    {
      "inputs": [
        {
          "internalType": "string",
          "name": "aadhaar",
          "type": "string"
        }
      ],
      "name": "getLoansByUser",
      "outputs": [
        {
          "components": [
            {
              "internalType": "string",
              "name": "loanData",
              "type": "string"
            }
          ],
          "internalType": "struct LoanManagement.Loan[]",
          "name": "",
          "type": "tuple[]"
        }
      ],
      "stateMutability": "view",
      "type": "function"
    },
    {
      "inputs": [
        {
          "internalType": "string",
          "name": "aadhaar",
          "type": "string"
        },
        {
          "internalType": "uint256",
          "name": "index",
          "type": "uint256"
        },
        {
          "internalType": "string",
          "name": "newLoanData",
          "type": "string"
        }
      ],
      "name": "updateLoan",
      "outputs": [],
      "stateMutability": "nonpayable",
      "type": "function"
    }
  ],
  "bytecode": "0x6080604052348015600f57600080fd5b506108ab8061001f6000396000f3fe608060405234801561001057600080fd5b50600436106100415760003560e01c80630f7df72714610046578063134c0b2b1461005b57806332cd7a6d1461006e575b600080fd5b610059610054366004610402565b610097565b005b610059610069366004610473565b6101ab565b61008161007c3660046104f2565b6102aa565b60405161008e9190610534565b60405180910390f35b600084846040516100a99291906105da565b9081526020016040518091039020604051806020016040528084848080601f016020809104026020016040519081016040528093929190818152602001838380828437600092018290525093909452505083546001810185559381526020902082519293019182915061011c9082610689565b50505060006001600086866040516101359291906105da565b9081526040519081900360200190205461014f9190610748565b905084846040516101619291906105da565b60405180910390207fcac38df747e37e975cf78ef2e503abdae9b447d2d70e68ea1337e59f329aec4582858560405161019c93929190610769565b60405180910390a25050505050565b600085856040516101bd9291906105da565b9081526040519081900360200190205483106102145760405162461bcd60e51b8152602060048201526012602482015271092dcecc2d8d2c840d8dec2dc40d2dcc8caf60731b604482015260640160405180910390fd5b8181600087876040516102289291906105da565b908152602001604051809103902085815481106102475761024761079f565b60009182526020909120019161025e9190836107b5565b50848460405161026f9291906105da565b60405180910390207f6a383ec1cfafe77ba3bb1d342e5d377a132d5a90a8b9e9cc74ee965ac1f872cf84848460405161019c93929190610769565b6060600083836040516102be9291906105da565b9081526020016040518091039020805480602002602001604051908101604052809291908181526020016000905b828210156103ac5783829060005260206000200160405180602001604052908160008201805461031b90610600565b80601f016020809104026020016040519081016040528092919081815260200182805461034790610600565b80156103945780601f1061036957610100808354040283529160200191610394565b820191906000526020600020905b81548152906001019060200180831161037757829003601f168201915b505050505081525050815260200190600101906102ec565b5050505090505b92915050565b60008083601f8401126103cb57600080fd5b50813567ffffffffffffffff8111156103e357600080fd5b6020830191508360208285010111156103fb57600080fd5b9250929050565b6000806000806040858703121561041857600080fd5b843567ffffffffffffffff81111561042f57600080fd5b61043b878288016103b9565b909550935050602085013567ffffffffffffffff81111561045b57600080fd5b610467878288016103b9565b95989497509550505050565b60008060008060006060868803121561048b57600080fd5b853567ffffffffffffffff8111156104a257600080fd5b6104ae888289016103b9565b90965094505060208601359250604086013567ffffffffffffffff8111156104d557600080fd5b6104e1888289016103b9565b969995985093965092949392505050565b6000806020838503121561050557600080fd5b823567ffffffffffffffff81111561051c57600080fd5b610528858286016103b9565b90969095509350505050565b6000602082016020835280845180835260408501915060408160051b86010192506020860160005b828110156105ce57603f1987860301845281515160208652805180602088015260005b8181101561059c57602081840181015160408a840101520161057f565b506000604082890101526040601f19601f8301168801019650505060208201915060208401935060018101905061055c565b50929695505050505050565b8183823760009101908152919050565b634e487b7160e01b600052604160045260246000fd5b600181811c9082168061061457607f821691505b60208210810361063457634e487b7160e01b600052602260045260246000fd5b50919050565b601f82111561068457806000526020600020601f840160051c810160208510156106615750805b601f840160051c820191505b81811015610681576000815560010161066d565b50505b505050565b815167ffffffffffffffff8111156106a3576106a36105ea565b6106b7816106b18454610600565b8461063a565b6020601f8211600181146106eb57600083156106d35750848201515b600019600385901b1c1916600184901b178455610681565b600084815260208120601f198516915b8281101561071b57878501518255602094850194600190920191016106fb565b50848210156107395786840151600019600387901b60f8161c191681555b50505050600190811b01905550565b818103818111156103b357634e487b7160e01b600052601160045260246000fd5b83815260406020820152816040820152818360608301376000818301606090810191909152601f909201601f1916010192915050565b634e487b7160e01b600052603260045260246000fd5b67ffffffffffffffff8311156107cd576107cd6105ea565b6107e1836107db8354610600565b8361063a565b6000601f84116001811461081557600085156107fd5750838201355b600019600387901b1c1916600186901b178355610681565b600083815260209020601f19861690835b828110156108465786850135825560209485019460019092019101610826565b50868210156108635760001960f88860031b161c19848701351681555b505060018560011b018355505050505056fea26469706673582212208f72abf3067712f4b810eb82c5ba265ba4afa082e45b3ab133bf755998d3558964736f6c634300081c0033",
  "linkReferences": {},
  "deployedLinkReferences": {}
}