{
  "_format": "hh-sol-artifact-1",
  "contractName": "RBACManagement",
  "sourceName": "contracts/RBACManagement.sol",
  "abi": [
    {
      "anonymous": false,
      "inputs": [
        {
          "indexed": false,
          "internalType": "string",
          "name": "newData",
          "type": "string"
        }
      ],
      "name": "RBACUpdated",
      "type": "event"
    },
    {
      "inputs": [],
      "name": "getRBAC",
      "outputs": [
        {
          "internalType": "string",
          "name": "",
          "type": "string"
        }
      ],
      "stateMutability": "view",
      "type": "function"
    },
    {
      "inputs": [
        {
          "internalType": "string",
          "name": "data",
          "type": "string"
        }
      ],
      "name": "setRBAC",
      "outputs": [],
      "stateMutability": "nonpayable",
      "type": "function"
    }
  ],
  "bytecode": "0x6080604052348015600f57600080fd5b506103d18061001f6000396000f3fe608060405234801561001057600080fd5b50600436106100365760003560e01c80630d1074191461003b578063e38ed35714610050575b600080fd5b61004e61004936600461014b565b61006e565b005b6100586100b9565b60405161006591906101bf565b60405180910390f35b600061007b8284836102ac565b507f75d0a438f6b2a9556f941d8cb438a66cbda519bb0dcfb7f97253aec3ebbec2e982826040516100ad92919061036c565b60405180910390a15050565b6060600080546100c890610223565b80601f01602080910402602001604051908101604052809291908181526020018280546100f490610223565b80156101415780601f1061011657610100808354040283529160200191610141565b820191906000526020600020905b81548152906001019060200180831161012457829003601f168201915b5050505050905090565b6000806020838503121561015e57600080fd5b823567ffffffffffffffff81111561017557600080fd5b8301601f8101851361018657600080fd5b803567ffffffffffffffff81111561019d57600080fd5b8560208284010111156101af57600080fd5b6020919091019590945092505050565b602081526000825180602084015260005b818110156101ed57602081860181015160408684010152016101d0565b506000604082850101526040601f19601f83011684010191505092915050565b634e487b7160e01b600052604160045260246000fd5b600181811c9082168061023757607f821691505b60208210810361025757634e487b7160e01b600052602260045260246000fd5b50919050565b601f8211156102a757806000526020600020601f840160051c810160208510156102845750805b601f840160051c820191505b818110156102a45760008155600101610290565b50505b505050565b67ffffffffffffffff8311156102c4576102c461020d565b6102d8836102d28354610223565b8361025d565b6000601f84116001811461030c57600085156102f45750838201355b600019600387901b1c1916600186901b1783556102a4565b600083815260209020601f19861690835b8281101561033d578685013582556020948501946001909201910161031d565b508682101561035a5760001960f88860031b161c19848701351681555b505060018560011b0183555050505050565b60208152816020820152818360408301376000818301604090810191909152601f909201601f1916010191905056fea26469706673582212205dec6cebae1cdd8438d9c8110bc8754a28bd908a9f1b97d011ef581948f1006464736f6c634300081c0033",
  "linkReferences": {},
  "deployedLinkReferences": {}
}