{
  "_format": "hh-sol-artifact-1",
  "contractName": "RoleManagement",
  "sourceName": "contracts/RoleManagement.sol",
  "abi": [
    {
      "anonymous": false,
      "inputs": [
        {
          "indexed": false,
          "internalType": "uint256",
          "name": "roleId",
          "type": "uint256"
        },
        {
          "indexed": false,
          "internalType": "string",
          "name": "roleName",
          "type": "string"
        }
      ],
      "name": "RoleCreated",
      "type": "event"
    },
    {
      "anonymous": false,
      "inputs": [
        {
          "indexed": false,
          "internalType": "uint256",
          "name": "roleId",
          "type": "uint256"
        },
        {
          "indexed": false,
          "internalType": "string",
          "name": "newRoleName",
          "type": "string"
        }
      ],
      "name": "RoleUpdated",
      "type": "event"
    },
    {
      "inputs": [
        {
          "internalType": "string",
          "name": "roleName",
          "type": "string"
        }
      ],
      "name": "createRole",
      "outputs": [
        {
          "internalType": "uint256",
          "name": "",
          "type": "uint256"
        }
      ],
      "stateMutability": "nonpayable",
      "type": "function"
    },
    {
      "inputs": [],
      "name": "getAllRoles",
      "outputs": [
        {
          "components": [
            {
              "internalType": "string",
              "name": "roleName",
              "type": "string"
            }
          ],
          "internalType": "struct RoleManagement.Role[]",
          "name": "",
          "type": "tuple[]"
        }
      ],
      "stateMutability": "view",
      "type": "function"
    },
    {
      "inputs": [
        {
          "internalType": "uint256",
          "name": "roleId",
          "type": "uint256"
        },
        {
          "internalType": "string",
          "name": "newRoleName",
          "type": "string"
        }
      ],
      "name": "updateRole",
      "outputs": [],
      "stateMutability": "nonpayable",
      "type": "function"
    }
  ],
  "bytecode": "0x608060405260018055348015601357600080fd5b506107b9806100236000396000f3fe608060405234801561001057600080fd5b50600436106100415760003560e01c806332e704cc14610046578063af17d38a1461005b578063f2bcac3d14610081575b600080fd5b6100596100543660046103a9565b610096565b005b61006e6100693660046103f5565b610147565b6040519081526020015b60405180910390f35b610089610200565b6040516100789190610437565b6000831180156100a7575060015483105b6100ed5760405162461bcd60e51b8152602060048201526013602482015272149bdb1948191bd95cc81b9bdd08195e1a5cdd606a1b604482015260640160405180910390fd5b6000838152602081905260409020610106828483610576565b507fce53ce49e3e057869d0d05f4a2193c8c6f941b854a2366146c67d00e9958289783838360405161013a93929190610636565b60405180910390a1505050565b600154604080516020601f8501819004810282018301835281018481526000939282919087908790819085018382808284376000920182905250939094525050838152602081905260409020825190915081906101a4908261066c565b505060018054915060006101b783610741565b91905055507f33d5db5dadf5598bea14bf7ec1ca42f58c47dd66bb953ae16559d034bd12dd238185856040516101ef93929190610636565b60405180910390a190505b92915050565b6060600060018054610212919061075a565b67ffffffffffffffff81111561022a5761022a6104dd565b60405190808252806020026020018201604052801561026a57816020015b6040805160208101909152606081528152602001906001900390816102485790505b50905060015b60015481101561035a576000808281526020019081526020016000206040518060200160405290816000820180546102a7906104f3565b80601f01602080910402602001604051908101604052809291908181526020018280546102d3906104f3565b80156103205780601f106102f557610100808354040283529160200191610320565b820191906000526020600020905b81548152906001019060200180831161030357829003601f168201915b50505050508152505082600183610337919061075a565b815181106103475761034761076d565b6020908102919091010152600101610270565b50919050565b60008083601f84011261037257600080fd5b50813567ffffffffffffffff81111561038a57600080fd5b6020830191508360208285010111156103a257600080fd5b9250929050565b6000806000604084860312156103be57600080fd5b83359250602084013567ffffffffffffffff8111156103dc57600080fd5b6103e886828701610360565b9497909650939450505050565b6000806020838503121561040857600080fd5b823567ffffffffffffffff81111561041f57600080fd5b61042b85828601610360565b90969095509350505050565b6000602082016020835280845180835260408501915060408160051b86010192506020860160005b828110156104d157603f1987860301845281515160208652805180602088015260005b8181101561049f57602081840181015160408a8401015201610482565b506000604082890101526040601f19601f8301168801019650505060208201915060208401935060018101905061045f565b50929695505050505050565b634e487b7160e01b600052604160045260246000fd5b600181811c9082168061050757607f821691505b60208210810361035a57634e487b7160e01b600052602260045260246000fd5b601f82111561057157806000526020600020601f840160051c8101602085101561054e5750805b601f840160051c820191505b8181101561056e576000815560010161055a565b50505b505050565b67ffffffffffffffff83111561058e5761058e6104dd565b6105a28361059c83546104f3565b83610527565b6000601f8411600181146105d657600085156105be5750838201355b600019600387901b1c1916600186901b17835561056e565b600083815260209020601f19861690835b8281101561060757868501358255602094850194600190920191016105e7565b50868210156106245760001960f88860031b161c19848701351681555b505060018560011b0183555050505050565b83815260406020820152816040820152818360608301376000818301606090810191909152601f909201601f1916010192915050565b815167ffffffffffffffff811115610686576106866104dd565b61069a8161069484546104f3565b84610527565b6020601f8211600181146106ce57600083156106b65750848201515b600019600385901b1c1916600184901b17845561056e565b600084815260208120601f198516915b828110156106fe57878501518255602094850194600190920191016106de565b508482101561071c5786840151600019600387901b60f8161c191681555b50505050600190811b01905550565b634e487b7160e01b600052601160045260246000fd5b6000600182016107535761075361072b565b5060010190565b818103818111156101fa576101fa61072b565b634e487b7160e01b600052603260045260246000fdfea264697066735822122062858221328a01d2e14fb4eb2c32a55bcb8f18096cb0074600c0f5115c9738a664736f6c634300081c0033",
  "linkReferences": {},
  "deployedLinkReferences": {}
}