{
  "_format": "hh-sol-artifact-1",
  "contractName": "UserManagement",
  "sourceName": "contracts/UserManagement.sol",
  "abi": [
    {
      "anonymous": false,
      "inputs": [
        {
          "indexed": true,
          "internalType": "string",
          "name": "aadhaar",
          "type": "string"
        }
      ],
      "name": "PinChanged",
      "type": "event"
    },
    {
      "anonymous": false,
      "inputs": [
        {
          "indexed": true,
          "internalType": "string",
          "name": "aadhaar",
          "type": "string"
        },
        {
          "indexed": false,
          "internalType": "string",
          "name": "data",
          "type": "string"
        }
      ],
      "name": "UserCreated",
      "type": "event"
    },
    {
      "anonymous": false,
      "inputs": [
        {
          "indexed": true,
          "internalType": "string",
          "name": "aadhaar",
          "type": "string"
        },
        {
          "indexed": false,
          "internalType": "string",
          "name": "data",
          "type": "string"
        }
      ],
      "name": "UserUpdated",
      "type": "event"
    },
    {
      "inputs": [
        {
          "internalType": "string",
          "name": "aadhaar",
          "type": "string"
        },
        {
          "internalType": "bytes32",
          "name": "oldPinHash",
          "type": "bytes32"
        },
        {
          "internalType": "bytes32",
          "name": "newPinHash",
          "type": "bytes32"
        }
      ],
      "name": "changePin",
      "outputs": [],
      "stateMutability": "nonpayable",
      "type": "function"
    },
    {
      "inputs": [
        {
          "internalType": "string",
          "name": "aadhaar",
          "type": "string"
        },
        {
          "internalType": "string",
          "name": "data",
          "type": "string"
        },
        {
          "internalType": "bytes32",
          "name": "pinHash",
          "type": "bytes32"
        }
      ],
      "name": "createUser",
      "outputs": [],
      "stateMutability": "nonpayable",
      "type": "function"
    },
    {
      "inputs": [
        {
          "internalType": "string",
          "name": "aadhaar",
          "type": "string"
        }
      ],
      "name": "getUser",
      "outputs": [
        {
          "internalType": "string",
          "name": "",
          "type": "string"
        },
        {
          "internalType": "bytes32",
          "name": "",
          "type": "bytes32"
        }
      ],
      "stateMutability": "view",
      "type": "function"
    },
    {
      "inputs": [
        {
          "internalType": "string",
          "name": "aadhaar",
          "type": "string"
        },
        {
          "internalType": "string",
          "name": "newData",
          "type": "string"
        }
      ],
      "name": "updateUser",
      "outputs": [],
      "stateMutability": "nonpayable",
      "type": "function"
    }
  ],
  "bytecode": "0x6080604052348015600f57600080fd5b506109ca8061001f6000396000f3fe608060405234801561001057600080fd5b506004361061004c5760003560e01c806331feb671146100515780635c418c121461007b57806387b5a88814610090578063dd4a2425146100a3575b600080fd5b61006461005f366004610565565b6100b6565b6040516100729291906105a7565b60405180910390f35b61008e6100893660046105fc565b61020e565b005b61008e61009e366004610675565b610357565b61008e6100b13660046106c6565b610429565b606060008084846040516100cb929190610737565b90815260405190819003602001902080546100e590610747565b90506000036101315760405162461bcd60e51b8152602060048201526013602482015272155cd95c88191bd95cc81b9bdd08195e1a5cdd606a1b60448201526064015b60405180910390fd5b6000808585604051610144929190610737565b908152602001604051809103902060405180604001604052908160008201805461016d90610747565b80601f016020809104026020016040519081016040528092919081815260200182805461019990610747565b80156101e65780601f106101bb576101008083540402835291602001916101e6565b820191906000526020600020905b8154815290600101906020018083116101c957829003601f168201915b50505091835250506001919091015460209182015281519101519093509150505b9250929050565b60008585604051610220929190610737565b908152604051908190036020019020805461023a90610747565b15905061027f5760405162461bcd60e51b81526020600482015260136024820152725573657220616c72656164792065786973747360681b6044820152606401610128565b6040805160606020601f86018190040282018101835291810184815290918291908690869081908501838280828437600092018290525093855250505060209091018390526040516102d49088908890610737565b908152604051908190036020019020815181906102f190826107e6565b5060208201518160010155905050848460405161030f929190610737565b60405180910390207ff32a9ee0d17d25c086bbe1fd7492121a0d326db5884d4b48a2401572db4844fb84846040516103489291906108a5565b60405180910390a25050505050565b816000858560405161036a929190610737565b908152602001604051809103902060010154146103bd5760405162461bcd60e51b815260206004820152601160248201527024b731b7b93932b1ba1037b632102824a760791b6044820152606401610128565b80600085856040516103d0929190610737565b908152604051908190036020018120600101919091556103f39085908590610737565b604051908190038120907fe5724c7b82dd9580eae64194f8e357be165dab1417b58ac1521d9c7f0591ef7e90600090a250505050565b6000848460405161043b929190610737565b908152604051908190036020019020805461045590610747565b905060000361049c5760405162461bcd60e51b8152602060048201526013602482015272155cd95c88191bd95cc81b9bdd08195e1a5cdd606a1b6044820152606401610128565b8181600086866040516104b0929190610737565b908152604051908190036020019020916104cb9190836108d4565b5083836040516104dc929190610737565b60405180910390207f737225f579161db636372a077837786804e50b182056ccd6992a18a6c56162de83836040516105159291906108a5565b60405180910390a250505050565b60008083601f84011261053557600080fd5b50813567ffffffffffffffff81111561054d57600080fd5b60208301915083602082850101111561020757600080fd5b6000806020838503121561057857600080fd5b823567ffffffffffffffff81111561058f57600080fd5b61059b85828601610523565b90969095509350505050565b604081526000835180604084015260005b818110156105d557602081870181015160608684010152016105b8565b506000606082850101526060601f19601f8301168401019150508260208301529392505050565b60008060008060006060868803121561061457600080fd5b853567ffffffffffffffff81111561062b57600080fd5b61063788828901610523565b909650945050602086013567ffffffffffffffff81111561065757600080fd5b61066388828901610523565b96999598509660400135949350505050565b6000806000806060858703121561068b57600080fd5b843567ffffffffffffffff8111156106a257600080fd5b6106ae87828801610523565b90989097506020870135966040013595509350505050565b600080600080604085870312156106dc57600080fd5b843567ffffffffffffffff8111156106f357600080fd5b6106ff87828801610523565b909550935050602085013567ffffffffffffffff81111561071f57600080fd5b61072b87828801610523565b95989497509550505050565b8183823760009101908152919050565b600181811c9082168061075b57607f821691505b60208210810361077b57634e487b7160e01b600052602260045260246000fd5b50919050565b634e487b7160e01b600052604160045260246000fd5b601f8211156107e157806000526020600020601f840160051c810160208510156107be5750805b601f840160051c820191505b818110156107de57600081556001016107ca565b50505b505050565b815167ffffffffffffffff81111561080057610800610781565b6108148161080e8454610747565b84610797565b6020601f82116001811461084857600083156108305750848201515b600019600385901b1c1916600184901b1784556107de565b600084815260208120601f198516915b828110156108785787850151825560209485019460019092019101610858565b50848210156108965786840151600019600387901b60f8161c191681555b50505050600190811b01905550565b60208152816020820152818360408301376000818301604090810191909152601f909201601f19160101919050565b67ffffffffffffffff8311156108ec576108ec610781565b610900836108fa8354610747565b83610797565b6000601f841160018114610934576000851561091c5750838201355b600019600387901b1c1916600186901b1783556107de565b600083815260209020601f19861690835b828110156109655786850135825560209485019460019092019101610945565b50868210156109825760001960f88860031b161c19848701351681555b505060018560011b018355505050505056fea2646970667358221220c188c93b8d0f4b9a011d3431096e347cdfb1d31d4970c75552b23599b460f13f64736f6c634300081c0033",
  "linkReferences": {},
  "deployedLinkReferences": {}
}