{
  "_format": "hh-sol-artifact-1",
  "contractName": "WorkflowManagement",
  "sourceName": "contracts/WorkflowManagement.sol",
  "abi": [
    {
      "anonymous": false,
      "inputs": [
        {
          "indexed": true,
          "internalType": "bytes32",
          "name": "workflowId",
          "type": "bytes32"
        },
        {
          "indexed": false,
          "internalType": "string",
          "name": "data",
          "type": "string"
        }
      ],
      "name": "WorkflowCreated",
      "type": "event"
    },
    {
      "anonymous": false,
      "inputs": [
        {
          "indexed": true,
          "internalType": "bytes32",
          "name": "workflowId",
          "type": "bytes32"
        },
        {
          "indexed": false,
          "internalType": "string",
          "name": "newData",
          "type": "string"
        }
      ],
      "name": "WorkflowUpdated",
      "type": "event"
    },
    {
      "inputs": [
        {
          "internalType": "string",
          "name": "data",
          "type": "string"
        }
      ],
      "name": "createWorkflow",
      "outputs": [
        {
          "internalType": "bytes32",
          "name": "",
          "type": "bytes32"
        }
      ],
      "stateMutability": "nonpayable",
      "type": "function"
    },
    {
      "inputs": [
        {
          "internalType": "bytes32",
          "name": "workflowId",
          "type": "bytes32"
        }
      ],
      "name": "getWorkflowById",
      "outputs": [
        {
          "internalType": "string",
          "name": "",
          "type": "string"
        }
      ],
      "stateMutability": "view",
      "type": "function"
    },
    {
      "inputs": [
        {
          "internalType": "bytes32",
          "name": "workflowId",
          "type": "bytes32"
        },
        {
          "internalType": "string",
          "name": "newData",
          "type": "string"
        }
      ],
      "name": "updateWorkflow",
      "outputs": [],
      "stateMutability": "nonpayable",
      "type": "function"
    }
  ],
  "bytecode": "0x6080604052348015600f57600080fd5b506107208061001f6000396000f3fe608060405234801561001057600080fd5b50600436106100415760003560e01c80634a22a1ac1461004657806370ae26401461006c57806390371cdd1461008c575b600080fd5b610059610054366004610378565b6100a1565b6040519081526020015b60405180910390f35b61007f61007a3660046103ba565b61017d565b60405161006391906103d3565b61009f61009a366004610421565b61027c565b005b600080838333426040516020016100bb949392919061046d565b60408051601f1981840301815282825280516020918201206060601f880183900490920284018201835291830186815291935082919087908790819085018382808284376000920182905250938552505050602091820184905283815290819052604090208151819061012e908261053c565b5060208201518160010155905050807f7c6c941d7f9865b1e0741e9ce4f3c35f436520dc3be1c853d50425f886c9ab1f858560405161016e9291906105fb565b60405180910390a29392505050565b600081815260208190526040812060010154606091036101de5760405162461bcd60e51b815260206004820152601760248201527615dbdc9ad99b1bddc8191bd95cc81b9bdd08195e1a5cdd604a1b60448201526064015b60405180910390fd5b600082815260208190526040902080546101f7906104b3565b80601f0160208091040260200160405190810160405280929190818152602001828054610223906104b3565b80156102705780601f1061024557610100808354040283529160200191610270565b820191906000526020600020905b81548152906001019060200180831161025357829003601f168201915b50505050509050919050565b60008381526020819052604081206001015490036102d65760405162461bcd60e51b815260206004820152601760248201527615dbdc9ad99b1bddc8191bd95cc81b9bdd08195e1a5cdd604a1b60448201526064016101d5565b60008381526020819052604090206102ef82848361062a565b50827f78dcba222ca55f223bc889b6c33fa89e9995cb7c3386b89878418103601367f483836040516103229291906105fb565b60405180910390a2505050565b60008083601f84011261034157600080fd5b50813567ffffffffffffffff81111561035957600080fd5b60208301915083602082850101111561037157600080fd5b9250929050565b6000806020838503121561038b57600080fd5b823567ffffffffffffffff8111156103a257600080fd5b6103ae8582860161032f565b90969095509350505050565b6000602082840312156103cc57600080fd5b5035919050565b602081526000825180602084015260005b8181101561040157602081860181015160408684010152016103e4565b506000604082850101526040601f19601f83011684010191505092915050565b60008060006040848603121561043657600080fd5b83359250602084013567ffffffffffffffff81111561045457600080fd5b6104608682870161032f565b9497909650939450505050565b8385823760609290921b6bffffffffffffffffffffffff1916919092019081526014810191909152603401919050565b634e487b7160e01b600052604160045260246000fd5b600181811c908216806104c757607f821691505b6020821081036104e757634e487b7160e01b600052602260045260246000fd5b50919050565b601f82111561053757806000526020600020601f840160051c810160208510156105145750805b601f840160051c820191505b818110156105345760008155600101610520565b50505b505050565b815167ffffffffffffffff8111156105565761055661049d565b61056a8161056484546104b3565b846104ed565b6020601f82116001811461059e57600083156105865750848201515b600019600385901b1c1916600184901b178455610534565b600084815260208120601f198516915b828110156105ce57878501518255602094850194600190920191016105ae565b50848210156105ec5786840151600019600387901b60f8161c191681555b50505050600190811b01905550565b60208152816020820152818360408301376000818301604090810191909152601f909201601f19160101919050565b67ffffffffffffffff8311156106425761064261049d565b6106568361065083546104b3565b836104ed565b6000601f84116001811461068a57600085156106725750838201355b600019600387901b1c1916600186901b178355610534565b600083815260209020601f19861690835b828110156106bb578685013582556020948501946001909201910161069b565b50868210156106d85760001960f88860031b161c19848701351681555b505060018560011b018355505050505056fea26469706673582212206cc253ae420456ad8a1a29d3eddd95d6dc59a9d9f7989be2509af3392537005364736f6c634300081c0033",
  "linkReferences": {},
  "deployedLinkReferences": {}
}