{
  "_format": "hh-sol-artifact-1",
  "contractName": "Operator",
  "sourceName": "@chainlink/contracts/src/v0.8/operatorforwarder/Operator.sol",
  "abi": [
    {
      "inputs": [
        {
          "internalType": "address",
          "name": "link",
          "type": "address"
        },
        {
          "internalType": "address",
          "name": "owner",
          "type": "address"
        }
      ],
      "stateMutability": "nonpayable",
      "type": "constructor"
    },
    {
      "anonymous": false,
      "inputs": [
        {
          "indexed": false,
          "internalType": "address[]",
          "name": "senders",
          "type": "address[]"
        },
        {
          "indexed": false,
          "internalType": "address",
          "name": "changedBy",
          "type": "address"
        }
      ],
      "name": "AuthorizedSendersChanged",
      "type": "event"
    },
    {
      "anonymous": false,
      "inputs": [
        {
          "indexed": true,
          "internalType": "bytes32",
          "name": "requestId",
          "type": "bytes32"
        }
      ],
      "name": "CancelOracleRequest",
      "type": "event"
    },
    {
      "anonymous": false,
      "inputs": [
        {
          "indexed": true,
          "internalType": "bytes32",
          "name": "specId",
          "type": "bytes32"
        },
        {
          "indexed": false,
          "internalType": "address",
          "name": "requester",
          "type": "address"
        },
        {
          "indexed": false,
          "internalType": "bytes32",
          "name": "requestId",
          "type": "bytes32"
        },
        {
          "indexed": false,
          "internalType": "uint256",
          "name": "payment",
          "type": "uint256"
        },
        {
          "indexed": false,
          "internalType": "address",
          "name": "callbackAddr",
          "type": "address"
        },
        {
          "indexed": false,
          "internalType": "bytes4",
          "name": "callbackFunctionId",
          "type": "bytes4"
        },
        {
          "indexed": false,
          "internalType": "uint256",
          "name": "cancelExpiration",
          "type": "uint256"
        },
        {
          "indexed": false,
          "internalType": "uint256",
          "name": "dataVersion",
          "type": "uint256"
        },
        {
          "indexed": false,
          "internalType": "bytes",
          "name": "data",
          "type": "bytes"
        }
      ],
      "name": "OracleRequest",
      "type": "event"
    },
    {
      "anonymous": false,
      "inputs": [
        {
          "indexed": true,
          "internalType": "bytes32",
          "name": "requestId",
          "type": "bytes32"
        }
      ],
      "name": "OracleResponse",
      "type": "event"
    },
    {
      "anonymous": false,
      "inputs": [
        {
          "indexed": true,
          "internalType": "address",
          "name": "acceptedContract",
          "type": "address"
        }
      ],
      "name": "OwnableContractAccepted",
      "type": "event"
    },
    {
      "anonymous": false,
      "inputs": [
        {
          "indexed": true,
          "internalType": "address",
          "name": "from",
          "type": "address"
        },
        {
          "indexed": true,
          "internalType": "address",
          "name": "to",
          "type": "address"
        }
      ],
      "name": "OwnershipTransferRequested",
      "type": "event"
    },
    {
      "anonymous": false,
      "inputs": [
        {
          "indexed": true,
          "internalType": "address",
          "name": "from",
          "type": "address"
        },
        {
          "indexed": true,
          "internalType": "address",
          "name": "to",
          "type": "address"
        }
      ],
      "name": "OwnershipTransferred",
      "type": "event"
    },
    {
      "anonymous": false,
      "inputs": [
        {
          "indexed": false,
          "internalType": "address[]",
          "name": "targets",
          "type": "address[]"
        },
        {
          "indexed": false,
          "internalType": "address[]",
          "name": "senders",
          "type": "address[]"
        },
        {
          "indexed": false,
          "internalType": "address",
          "name": "changedBy",
          "type": "address"
        }
      ],
      "name": "TargetsUpdatedAuthorizedSenders",
      "type": "event"
    },
    {
      "inputs": [],
      "name": "EXPIRYTIME",
      "outputs": [
        {
          "internalType": "uint256",
          "name": "",
          "type": "uint256"
        }
      ],
      "stateMutability": "view",
      "type": "function"
    },
    {
      "inputs": [
        {
          "internalType": "address[]",
          "name": "targets",
          "type": "address[]"
        },
        {
          "internalType": "address[]",
          "name": "senders",
          "type": "address[]"
        }
      ],
      "name": "acceptAuthorizedReceivers",
      "outputs": [],
      "stateMutability": "nonpayable",
      "type": "function"
    },
    {
      "inputs": [
        {
          "internalType": "address[]",
          "name": "ownable",
          "type": "address[]"
        }
      ],
      "name": "acceptOwnableContracts",
      "outputs": [],
      "stateMutability": "nonpayable",
      "type": "function"
    },
    {
      "inputs": [],
      "name": "acceptOwnership",
      "outputs": [],
      "stateMutability": "nonpayable",
      "type": "function"
    },
    {
      "inputs": [
        {
          "internalType": "bytes32",
          "name": "requestId",
          "type": "bytes32"
        },
        {
          "internalType": "uint256",
          "name": "payment",
          "type": "uint256"
        },
        {
          "internalType": "bytes4",
          "name": "callbackFunc",
          "type": "bytes4"
        },
        {
          "internalType": "uint256",
          "name": "expiration",
          "type": "uint256"
        }
      ],
      "name": "cancelOracleRequest",
      "outputs": [],
      "stateMutability": "nonpayable",
      "type": "function"
    },
    {
      "inputs": [
        {
          "internalType": "uint256",
          "name": "nonce",
          "type": "uint256"
        },
        {
          "internalType": "uint256",
          "name": "payment",
          "type": "uint256"
        },
        {
          "internalType": "bytes4",
          "name": "callbackFunc",
          "type": "bytes4"
        },
        {
          "internalType": "uint256",
          "name": "expiration",
          "type": "uint256"
        }
      ],
      "name": "cancelOracleRequestByRequester",
      "outputs": [],
      "stateMutability": "nonpayable",
      "type": "function"
    },
    {
      "inputs": [
        {
          "internalType": "address payable[]",
          "name": "receivers",
          "type": "address[]"
        },
        {
          "internalType": "uint256[]",
          "name": "amounts",
          "type": "uint256[]"
        }
      ],
      "name": "distributeFunds",
      "outputs": [],
      "stateMutability": "payable",
      "type": "function"
    },
    {
      "inputs": [
        {
          "internalType": "bytes32",
          "name": "requestId",
          "type": "bytes32"
        },
        {
          "internalType": "uint256",
          "name": "payment",
          "type": "uint256"
        },
        {
          "internalType": "address",
          "name": "callbackAddress",
          "type": "address"
        },
        {
          "internalType": "bytes4",
          "name": "callbackFunctionId",
          "type": "bytes4"
        },
        {
          "internalType": "uint256",
          "name": "expiration",
          "type": "uint256"
        },
        {
          "internalType": "bytes32",
          "name": "data",
          "type": "bytes32"
        }
      ],
      "name": "fulfillOracleRequest",
      "outputs": [
        {
          "internalType": "bool",
          "name": "",
          "type": "bool"
        }
      ],
      "stateMutability": "nonpayable",
      "type": "function"
    },
    {
      "inputs": [
        {
          "internalType": "bytes32",
          "name": "requestId",
          "type": "bytes32"
        },
        {
          "internalType": "uint256",
          "name": "payment",
          "type": "uint256"
        },
        {
          "internalType": "address",
          "name": "callbackAddress",
          "type": "address"
        },
        {
          "internalType": "bytes4",
          "name": "callbackFunctionId",
          "type": "bytes4"
        },
        {
          "internalType": "uint256",
          "name": "expiration",
          "type": "uint256"
        },
        {
          "internalType": "bytes",
          "name": "data",
          "type": "bytes"
        }
      ],
      "name": "fulfillOracleRequest2",
      "outputs": [
        {
          "internalType": "bool",
          "name": "",
          "type": "bool"
        }
      ],
      "stateMutability": "nonpayable",
      "type": "function"
    },
    {
      "inputs": [],
      "name": "getAuthorizedSenders",
      "outputs": [
        {
          "internalType": "address[]",
          "name": "",
          "type": "address[]"
        }
      ],
      "stateMutability": "view",
      "type": "function"
    },
    {
      "inputs": [],
      "name": "getChainlinkToken",
      "outputs": [
        {
          "internalType": "address",
          "name": "",
          "type": "address"
        }
      ],
      "stateMutability": "view",
      "type": "function"
    },
    {
      "inputs": [
        {
          "internalType": "address",
          "name": "sender",
          "type": "address"
        }
      ],
      "name": "isAuthorizedSender",
      "outputs": [
        {
          "internalType": "bool",
          "name": "",
          "type": "bool"
        }
      ],
      "stateMutability": "view",
      "type": "function"
    },
    {
      "inputs": [
        {
          "internalType": "address",
          "name": "sender",
          "type": "address"
        },
        {
          "internalType": "uint256",
          "name": "amount",
          "type": "uint256"
        },
        {
          "internalType": "bytes",
          "name": "data",
          "type": "bytes"
        }
      ],
      "name": "onTokenTransfer",
      "outputs": [],
      "stateMutability": "nonpayable",
      "type": "function"
    },
    {
      "inputs": [
        {
          "internalType": "address",
          "name": "sender",
          "type": "address"
        },
        {
          "internalType": "uint256",
          "name": "payment",
          "type": "uint256"
        },
        {
          "internalType": "bytes32",
          "name": "specId",
          "type": "bytes32"
        },
        {
          "internalType": "bytes4",
          "name": "callbackFunctionId",
          "type": "bytes4"
        },
        {
          "internalType": "uint256",
          "name": "nonce",
          "type": "uint256"
        },
        {
          "internalType": "uint256",
          "name": "dataVersion",
          "type": "uint256"
        },
        {
          "internalType": "bytes",
          "name": "data",
          "type": "bytes"
        }
      ],
      "name": "operatorRequest",
      "outputs": [],
      "stateMutability": "nonpayable",
      "type": "function"
    },
    {
      "inputs": [
        {
          "internalType": "address",
          "name": "sender",
          "type": "address"
        },
        {
          "internalType": "uint256",
          "name": "payment",
          "type": "uint256"
        },
        {
          "internalType": "bytes32",
          "name": "specId",
          "type": "bytes32"
        },
        {
          "internalType": "address",
          "name": "callbackAddress",
          "type": "address"
        },
        {
          "internalType": "bytes4",
          "name": "callbackFunctionId",
          "type": "bytes4"
        },
        {
          "internalType": "uint256",
          "name": "nonce",
          "type": "uint256"
        },
        {
          "internalType": "uint256",
          "name": "dataVersion",
          "type": "uint256"
        },
        {
          "internalType": "bytes",
          "name": "data",
          "type": "bytes"
        }
      ],
      "name": "oracleRequest",
      "outputs": [],
      "stateMutability": "nonpayable",
      "type": "function"
    },
    {
      "inputs": [],
      "name": "owner",
      "outputs": [
        {
          "internalType": "address",
          "name": "",
          "type": "address"
        }
      ],
      "stateMutability": "view",
      "type": "function"
    },
    {
      "inputs": [
        {
          "internalType": "address",
          "name": "to",
          "type": "address"
        },
        {
          "internalType": "bytes",
          "name": "data",
          "type": "bytes"
        }
      ],
      "name": "ownerForward",
      "outputs": [],
      "stateMutability": "nonpayable",
      "type": "function"
    },
    {
      "inputs": [
        {
          "internalType": "address",
          "name": "to",
          "type": "address"
        },
        {
          "internalType": "uint256",
          "name": "value",
          "type": "uint256"
        },
        {
          "internalType": "bytes",
          "name": "data",
          "type": "bytes"
        }
      ],
      "name": "ownerTransferAndCall",
      "outputs": [
        {
          "internalType": "bool",
          "name": "success",
          "type": "bool"
        }
      ],
      "stateMutability": "nonpayable",
      "type": "function"
    },
    {
      "inputs": [
        {
          "internalType": "address[]",
          "name": "senders",
          "type": "address[]"
        }
      ],
      "name": "setAuthorizedSenders",
      "outputs": [],
      "stateMutability": "nonpayable",
      "type": "function"
    },
    {
      "inputs": [
        {
          "internalType": "address[]",
          "name": "targets",
          "type": "address[]"
        },
        {
          "internalType": "address[]",
          "name": "senders",
          "type": "address[]"
        }
      ],
      "name": "setAuthorizedSendersOn",
      "outputs": [],
      "stateMutability": "nonpayable",
      "type": "function"
    },
    {
      "inputs": [
        {
          "internalType": "address[]",
          "name": "ownable",
          "type": "address[]"
        },
        {
          "internalType": "address",
          "name": "newOwner",
          "type": "address"
        }
      ],
      "name": "transferOwnableContracts",
      "outputs": [],
      "stateMutability": "nonpayable",
      "type": "function"
    },
    {
      "inputs": [
        {
          "internalType": "address",
          "name": "to",
          "type": "address"
        }
      ],
      "name": "transferOwnership",
      "outputs": [],
      "stateMutability": "nonpayable",
      "type": "function"
    },
    {
      "inputs": [],
      "name": "typeAndVersion",
      "outputs": [
        {
          "internalType": "string",
          "name": "",
          "type": "string"
        }
      ],
      "stateMutability": "view",
      "type": "function"
    },
    {
      "inputs": [
        {
          "internalType": "address",
          "name": "recipient",
          "type": "address"
        },
        {
          "internalType": "uint256",
          "name": "amount",
          "type": "uint256"
        }
      ],
      "name": "withdraw",
      "outputs": [],
      "stateMutability": "nonpayable",
      "type": "function"
    },
    {
      "inputs": [],
      "name": "withdrawable",
      "outputs": [
        {
          "internalType": "uint256",
          "name": "",
          "type": "uint256"
        }
      ],
      "stateMutability": "view",
      "type": "function"
    }
  ],
  "bytecode": "0x60a060405260016006553480156200001657600080fd5b5060405162002d8b38038062002d8b8339810160408190526200003991620001ab565b808060006001600160a01b038216620000995760405162461bcd60e51b815260206004820152601860248201527f43616e6e6f7420736574206f776e657220746f207a65726f000000000000000060448201526064015b60405180910390fd5b600280546001600160a01b0319166001600160a01b0384811691909117909155811615620000cc57620000cc81620000e2565b505050506001600160a01b0316608052620001e3565b336001600160a01b038216036200013c5760405162461bcd60e51b815260206004820152601760248201527f43616e6e6f74207472616e7366657220746f2073656c66000000000000000000604482015260640162000090565b600380546001600160a01b0319166001600160a01b03838116918217909255600254604051919216907fed8889f560326eb138920d842192f0eb3dd22b4f139c87a2c57538e05bae127890600090a350565b80516001600160a01b0381168114620001a657600080fd5b919050565b60008060408385031215620001bf57600080fd5b620001ca836200018e565b9150620001da602084016200018e565b90509250929050565b608051612b4d6200023e600039600081816101bc0152818161066d0152818161085701528181610a0b015281816112c70152818161143b015281816114ce015281816118ac01528181611ac00152611dec0152612b4d6000f3fe6080604052600436106101665760003560e01c80636ae0bc76116100d1578063a4c0ed361161008a578063f2fde38b11610064578063f2fde38b14610451578063f3fef3a314610471578063fa00763a14610491578063fc4a03ed146104ca57600080fd5b8063a4c0ed36146103f1578063eb007d9914610411578063ee56997b1461043157600080fd5b80636ae0bc761461034b5780636bd59ec01461036b5780636ee4d5531461037e57806379ba50971461039e5780638da5cb5b146103b3578063902fc370146103d157600080fd5b80633ec5bc14116101235780633ec5bc141461028257806340429946146102a25780634ab0d190146102c257806350188301146102f257806352043783146103155780635ffa62881461032b57600080fd5b806301994b991461016b578063033f49f71461018d578063165d35e1146101ad578063181f5a77146101f95780632408afaa146102405780633c6d41b914610262575b600080fd5b34801561017757600080fd5b5061018b610186366004612167565b6104ea565b005b34801561019957600080fd5b5061018b6101a8366004612200565b610662565b3480156101b957600080fd5b507f00000000000000000000000000000000000000000000000000000000000000005b6040516001600160a01b0390911681526020015b60405180910390f35b34801561020557600080fd5b506102336040518060400160405280600e81526020016d04f70657261746f7220312e302e360941b81525081565b6040516101f09190612279565b34801561024c57600080fd5b506102556107ea565b6040516101f091906122ac565b34801561026e57600080fd5b5061018b61027d366004612316565b61084c565b34801561028e57600080fd5b5061018b61029d3660046123a3565b6108fd565b3480156102ae57600080fd5b5061018b6102bd3660046123fa565b610a00565b3480156102ce57600080fd5b506102e26102dd36600461249d565b610ab2565b60405190151581526020016101f0565b3480156102fe57600080fd5b50610307610cd7565b6040519081526020016101f0565b34801561032157600080fd5b5061030761012c81565b34801561033757600080fd5b5061018b6103463660046124f7565b610ce6565b34801561035757600080fd5b506102e2610366366004612563565b610d20565b61018b6103793660046124f7565b610fc4565b34801561038a57600080fd5b5061018b6103993660046125e7565b61119a565b3480156103aa57600080fd5b5061018b611344565b3480156103bf57600080fd5b506002546001600160a01b03166101dc565b3480156103dd57600080fd5b506102e26103ec366004612624565b6113f2565b3480156103fd57600080fd5b5061018b61040c36600461268a565b6114c3565b34801561041d57600080fd5b5061018b61042c3660046125e7565b6115d3565b34801561043d57600080fd5b5061018b61044c366004612167565b611615565b34801561045d57600080fd5b5061018b61046c366004612757565b611842565b34801561047d57600080fd5b5061018b61048c36600461277b565b611856565b34801561049d57600080fd5b506102e26104ac366004612757565b6001600160a01b031660009081526020819052604090205460ff1690565b3480156104d657600080fd5b5061018b6104e53660046124f7565b611925565b6104f2611a2a565b6105175760405162461bcd60e51b815260040161050e906127a7565b60405180910390fd5b60005b8181101561065d5760016005600085858581811061053a5761053a6127de565b905060200201602081019061054f9190612757565b6001600160a01b031681526020810191909152604001600020805460ff1916911515919091179055828282818110610589576105896127de565b905060200201602081019061059e9190612757565b6001600160a01b03167f615a0c1cb00a60d4acd77ec67acf2f17f223ef0932d591052fabc33643fe7e8260405160405180910390a28282828181106105e5576105e56127de565b90506020020160208101906105fa9190612757565b6001600160a01b03166379ba50976040518163ffffffff1660e01b8152600401600060405180830381600087803b15801561063457600080fd5b505af1158015610648573d6000803e3d6000fd5b50505050806106569061280a565b905061051a565b505050565b61066a611a65565b827f00000000000000000000000000000000000000000000000000000000000000006001600160a01b0316816001600160a01b0316036106e25760405162461bcd60e51b815260206004820152601360248201527243616e6e6f742063616c6c20746f204c494e4b60681b604482015260640161050e565b836001600160a01b03163b60000361073c5760405162461bcd60e51b815260206004820152601a60248201527f4d75737420666f727761726420746f206120636f6e7472616374000000000000604482015260640161050e565b6000846001600160a01b03168484604051610758929190612823565b6000604051808303816000865af19150503d8060008114610795576040519150601f19603f3d011682016040523d82523d6000602084013e61079a565b606091505b50509050806107e35760405162461bcd60e51b8152602060048201526015602482015274119bdc9dd85c9919590818d85b1b0819985a5b1959605a1b604482015260640161050e565b5050505050565b6060600180548060200260200160405190810160405280929190818152602001828054801561084257602002820191906000526020600020905b81546001600160a01b03168152600190910190602001808311610824575b5050505050905090565b336001600160a01b037f000000000000000000000000000000000000000000000000000000000000000016146108945760405162461bcd60e51b815260040161050e90612833565b6000806108a58a8a8c8a8a8a611aba565b91509150877fd8d7ecc4800d25fa53ce0372f13a416d98907a7ef3d8d3bdd79cf4fe75529c658b848c8e8c878c8c8c6040516108e999989796959493929190612889565b60405180910390a250505050505050505050565b610905611a65565b60005b828110156109fa57600060056000868685818110610928576109286127de565b905060200201602081019061093d9190612757565b6001600160a01b031681526020810191909152604001600020805460ff1916911515919091179055838382818110610977576109776127de565b905060200201602081019061098c9190612757565b60405163f2fde38b60e01b81526001600160a01b038481166004830152919091169063f2fde38b90602401600060405180830381600087803b1580156109d157600080fd5b505af11580156109e5573d6000803e3d6000fd5b50505050806109f39061280a565b9050610908565b50505050565b336001600160a01b037f00000000000000000000000000000000000000000000000000000000000000001614610a485760405162461bcd60e51b815260040161050e90612833565b600080610a598b8b8a8a8a8a611aba565b91509150887fd8d7ecc4800d25fa53ce0372f13a416d98907a7ef3d8d3bdd79cf4fe75529c658c848d8f8c878c8c8c604051610a9d99989796959493929190612889565b60405180910390a25050505050505050505050565b6000610abc611c58565b600087815260046020526040812054889160089190911b60ff19169003610b255760405162461bcd60e51b815260206004820152601b60248201527f4d757374206861766520612076616c6964207265717565737449640000000000604482015260640161050e565b6001600160a01b038616600090815260056020526040902054869060ff1615610b905760405162461bcd60e51b815260206004820152601a60248201527f43616e6e6f742063616c6c206f776e656420636f6e7472616374000000000000604482015260640161050e565b610b9f89898989896001611caf565b60405189907f9e9bc7616d42c2835d05ae617e508454e63b30b934be8aa932ebc125e0e58a6490600090a262061a805a1015610c1d5760405162461bcd60e51b815260206004820181905260248201527f4d7573742070726f7669646520636f6e73756d657220656e6f75676820676173604482015260640161050e565b6000876001600160a01b0316878b87604051602401610c46929190918252602082015260400190565b60408051601f198184030181529181526020820180516001600160e01b03166001600160e01b0319909416939093179092529051610c8491906128f3565b6000604051808303816000865af19150503d8060008114610cc1576040519150601f19603f3d011682016040523d82523d6000602084013e610cc6565b606091505b50909b9a5050505050505050505050565b6000610ce1611dc6565b905090565b610cee611a2a565b610d0a5760405162461bcd60e51b815260040161050e906127a7565b610d1484846104ea565b6109fa84848484611925565b6000610d2a611c58565b600088815260046020526040812054899160089190911b60ff19169003610d935760405162461bcd60e51b815260206004820152601b60248201527f4d757374206861766520612076616c6964207265717565737449640000000000604482015260640161050e565b6001600160a01b038716600090815260056020526040902054879060ff1615610dfe5760405162461bcd60e51b815260206004820152601a60248201527f43616e6e6f742063616c6c206f776e656420636f6e7472616374000000000000604482015260640161050e565b8985856020811015610e525760405162461bcd60e51b815260206004820152601b60248201527f526573706f6e7365206d757374206265203e2033322062797465730000000000604482015260640161050e565b8135838114610ea35760405162461bcd60e51b815260206004820152601c60248201527f466972737420776f7264206d7573742062652072657175657374496400000000604482015260640161050e565b610eb28e8e8e8e8e6002611caf565b6040518e907f9e9bc7616d42c2835d05ae617e508454e63b30b934be8aa932ebc125e0e58a6490600090a262061a805a1015610f305760405162461bcd60e51b815260206004820181905260248201527f4d7573742070726f7669646520636f6e73756d657220656e6f75676820676173604482015260640161050e565b60008c6001600160a01b03168c8b8b604051602001610f519392919061290f565b60408051601f1981840301815290829052610f6b916128f3565b6000604051808303816000865af19150503d8060008114610fa8576040519150601f19603f3d011682016040523d82523d6000602084013e610fad565b606091505b509098505050505050505050979650505050505050565b8215801590610fd257508281145b61101e5760405162461bcd60e51b815260206004820152601760248201527f496e76616c6964206172726179206c656e677468287329000000000000000000604482015260640161050e565b3460005b8481101561115757600084848381811061103e5761103e6127de565b90506020020135905080836110539190612933565b92506000878784818110611069576110696127de565b905060200201602081019061107e9190612757565b6001600160a01b03168260405160006040518083038185875af1925050503d80600081146110c8576040519150601f19603f3d011682016040523d82523d6000602084013e6110cd565b606091505b50509050806111445760405162461bcd60e51b815260206004820152603a60248201527f416464726573733a20756e61626c6520746f2073656e642076616c75652c207260448201527f6563697069656e74206d61792068617665207265766572746564000000000000606482015260840161050e565b5050806111509061280a565b9050611022565b5080156107e35760405162461bcd60e51b8152602060048201526011602482015270151bdbc81b5d58da08115512081cd95b9d607a1b604482015260640161050e565b60006111a884338585611e69565b60008681526004602052604090205490915060081b60ff19908116908216146112135760405162461bcd60e51b815260206004820152601e60248201527f506172616d7320646f206e6f74206d6174636820726571756573742049440000604482015260640161050e565b4282111561125c5760405162461bcd60e51b815260206004820152601660248201527514995c5d595cdd081a5cc81b9bdd08195e1c1a5c995960521b604482015260640161050e565b6000858152600460205260408082208290555186917fa7842b9ec549398102c0d91b1b9919b2f20558aefdadf57528a95c6cd3292e9391a283600660008282546112a69190612933565b909155505060405163a9059cbb60e01b8152336004820152602481018590527f00000000000000000000000000000000000000000000000000000000000000006001600160a01b03169063a9059cbb906044016020604051808303816000875af1158015611318573d6000803e3d6000fd5b505050506040513d601f19601f8201168201806040525081019061133c919061294c565b505050505050565b6003546001600160a01b031633146113975760405162461bcd60e51b815260206004820152601660248201527526bab9ba10313290383937b837b9b2b21037bbb732b960511b604482015260640161050e565b600280546001600160a01b0319808216339081179093556003805490911690556040516001600160a01b03909116919082907f8be0079c531659141344cd1fd0a4f28419497f9722a3daafe3b4186f6b6457e090600090a350565b60006113fc611a65565b8380611406611dc6565b10156114245760405162461bcd60e51b815260040161050e9061296e565b604051630200057560e51b81526001600160a01b037f00000000000000000000000000000000000000000000000000000000000000001690634000aea0906114769089908990899089906004016129c3565b6020604051808303816000875af1158015611495573d6000803e3d6000fd5b505050506040513d601f19601f820116820180604052508101906114b9919061294c565b9695505050505050565b336001600160a01b037f0000000000000000000000000000000000000000000000000000000000000000161461150b5760405162461bcd60e51b815260040161050e90612833565b6020810151819061151c8183611ebe565b8460248401528360448401526000306001600160a01b03168460405161154291906128f3565b600060405180830381855af49150503d806000811461157d576040519150601f19603f3d011682016040523d82523d6000602084013e611582565b606091505b505090508061133c5760405162461bcd60e51b815260206004820152601860248201527f556e61626c6520746f2063726561746520726571756573740000000000000000604482015260640161050e565b6040516001600160601b03193360601b166020820152603481018590526109fa906054016040516020818303038152906040528051906020012084848461119a565b61161d611a2a565b6116395760405162461bcd60e51b815260040161050e906127a7565b806116865760405162461bcd60e51b815260206004820152601b60248201527f4d7573742068617665206174206c6561737420312073656e6465720000000000604482015260640161050e565b60015460005b818110156116f0576000806000600184815481106116ac576116ac6127de565b6000918252602080832091909101546001600160a01b031683528201929092526040019020805460ff19169115159190911790556116e98161280a565b905061168c565b5060005b828110156117f457600080858584818110611711576117116127de565b90506020020160208101906117269190612757565b6001600160a01b0316815260208101919091526040016000205460ff16156117905760405162461bcd60e51b815260206004820152601f60248201527f4d757374206e6f742068617665206475706c69636174652073656e6465727300604482015260640161050e565b60016000808686858181106117a7576117a76127de565b90506020020160208101906117bc9190612757565b6001600160a01b031681526020810191909152604001600020805460ff19169115159190911790556117ed8161280a565b90506116f4565b50611801600184846120ac565b507ff263cfb3e4298332e776194610cf9fdc09ccb3ada8b9aa39764d882e11fbf0a083833360405161183593929190612a34565b60405180910390a1505050565b61184a611a65565b61185381611f9d565b50565b61185e611a65565b8080611868611dc6565b10156118865760405162461bcd60e51b815260040161050e9061296e565b60405163a9059cbb60e01b81526001600160a01b038481166004830152602482018490527f0000000000000000000000000000000000000000000000000000000000000000169063a9059cbb906044016020604051808303816000875af11580156118f5573d6000803e3d6000fd5b505050506040513d601f19601f82011682018060405250810190611919919061294c565b61065d5761065d612a60565b61192d611a2a565b6119495760405162461bcd60e51b815260040161050e906127a7565b7f1bb185903e2cb2f1b303523128b60e314dea81df4f8d9b7351cadd344f6e77278484848433604051611980959493929190612a76565b60405180910390a160005b838110156107e3578484828181106119a5576119a56127de565b90506020020160208101906119ba9190612757565b6001600160a01b031663ee56997b84846040518363ffffffff1660e01b81526004016119e7929190612ab8565b600060405180830381600087803b158015611a0157600080fd5b505af1158015611a15573d6000803e3d6000fd5b5050505080611a239061280a565b905061198b565b3360009081526020819052604081205460ff1680610ce1575033611a566002546001600160a01b031690565b6001600160a01b031614905090565b6002546001600160a01b03163314611ab85760405162461bcd60e51b815260206004820152601660248201527527b7363c9031b0b63630b1363290313c9037bbb732b960511b604482015260640161050e565b565b600080857f00000000000000000000000000000000000000000000000000000000000000006001600160a01b0316816001600160a01b031603611b355760405162461bcd60e51b815260206004820152601360248201527243616e6e6f742063616c6c20746f204c494e4b60681b604482015260640161050e565b6040516001600160601b031960608b901b1660208201526034810186905260540160408051808303601f1901815291815281516020928301206000818152600490935291205490935060081b60ff191615611bc95760405162461bcd60e51b8152602060048201526014602482015273135d5cdd081d5cd94818481d5b9a5c5d5948125160621b604482015260640161050e565b611bd561012c42612ad4565b91506000611be589898986611e69565b905060405180604001604052808260ff19168152602001611c0587612047565b60ff908116909152600086815260046020908152604090912083519390910151909116600160f81b0260089290921c919091179055600654611c48908a90612ad4565b6006555050965096945050505050565b3360009081526020819052604090205460ff16611ab85760405162461bcd60e51b81526020600482015260156024820152742737ba1030baba3437b934bd32b21039b2b73232b960591b604482015260640161050e565b6000611cbd86868686611e69565b60008881526004602052604090205490915060081b60ff1990811690821614611d285760405162461bcd60e51b815260206004820152601e60248201527f506172616d7320646f206e6f74206d6174636820726571756573742049440000604482015260640161050e565b611d3182612047565b60008881526004602052604090205460ff918216600160f81b9091049091161115611d9e5760405162461bcd60e51b815260206004820152601860248201527f446174612076657273696f6e73206d757374206d617463680000000000000000604482015260640161050e565b85600654611dac9190612933565b600655505050600093845250506004602052506040812055565b60006001600654611dd79190612933565b6040516370a0823160e01b81523060048201527f00000000000000000000000000000000000000000000000000000000000000006001600160a01b0316906370a0823190602401602060405180830381865afa158015611e3b573d6000803e3d6000fd5b505050506040513d601f19601f82011682018060405250810190611e5f9190612ae7565b610ce19190612933565b6040805160208082019690965260609490941b6001600160601b031916848201526001600160e01b03199290921660548401526058808401919091528151808403909101815260789092019052805191012090565b611eca60026020612b00565b611ed5906004612ad4565b81511015611f1e5760405162461bcd60e51b8152602060048201526016602482015275092dcecc2d8d2c840e4cae2eacae6e840d8cadccee8d60531b604482015260640161050e565b6001600160e01b03198216633c6d41b960e01b1480611f4d57506001600160e01b031982166320214ca360e11b145b611f995760405162461bcd60e51b815260206004820152601e60248201527f4d757374207573652077686974656c69737465642066756e6374696f6e730000604482015260640161050e565b5050565b336001600160a01b03821603611ff55760405162461bcd60e51b815260206004820152601760248201527f43616e6e6f74207472616e7366657220746f2073656c66000000000000000000604482015260640161050e565b600380546001600160a01b0319166001600160a01b03838116918217909255600254604051919216907fed8889f560326eb138920d842192f0eb3dd22b4f139c87a2c57538e05bae127890600090a350565b600060ff8211156120a85760405162461bcd60e51b815260206004820152602560248201527f53616665436173743a2076616c756520646f65736e27742066697420696e2038604482015264206269747360d81b606482015260840161050e565b5090565b8280548282559060005260206000209081019282156120ff579160200282015b828111156120ff5781546001600160a01b0319166001600160a01b038435161782556020909201916001909101906120cc565b506120a89291505b808211156120a85760008155600101612107565b60008083601f84011261212d57600080fd5b50813567ffffffffffffffff81111561214557600080fd5b6020830191508360208260051b850101111561216057600080fd5b9250929050565b6000806020838503121561217a57600080fd5b823567ffffffffffffffff81111561219157600080fd5b61219d8582860161211b565b90969095509350505050565b6001600160a01b038116811461185357600080fd5b60008083601f8401126121d057600080fd5b50813567ffffffffffffffff8111156121e857600080fd5b60208301915083602082850101111561216057600080fd5b60008060006040848603121561221557600080fd5b8335612220816121a9565b9250602084013567ffffffffffffffff81111561223c57600080fd5b612248868287016121be565b9497909650939450505050565b60005b83811015612270578181015183820152602001612258565b50506000910152565b6020815260008251806020840152612298816040850160208701612255565b601f01601f19169190910160400192915050565b6020808252825182820181905260009190848201906040850190845b818110156122ed5783516001600160a01b0316835292840192918401916001016122c8565b50909695505050505050565b80356001600160e01b03198116811461231157600080fd5b919050565b60008060008060008060008060e0898b03121561233257600080fd5b883561233d816121a9565b9750602089013596506040890135955061235960608a016122f9565b94506080890135935060a0890135925060c089013567ffffffffffffffff81111561238357600080fd5b61238f8b828c016121be565b999c989b5096995094979396929594505050565b6000806000604084860312156123b857600080fd5b833567ffffffffffffffff8111156123cf57600080fd5b6123db8682870161211b565b90945092505060208401356123ef816121a9565b809150509250925092565b60008060008060008060008060006101008a8c03121561241957600080fd5b8935612424816121a9565b985060208a0135975060408a0135965060608a0135612442816121a9565b955061245060808b016122f9565b945060a08a0135935060c08a0135925060e08a013567ffffffffffffffff81111561247a57600080fd5b6124868c828d016121be565b915080935050809150509295985092959850929598565b60008060008060008060c087890312156124b657600080fd5b863595506020870135945060408701356124cf816121a9565b93506124dd606088016122f9565b92506080870135915060a087013590509295509295509295565b6000806000806040858703121561250d57600080fd5b843567ffffffffffffffff8082111561252557600080fd5b6125318883890161211b565b9096509450602087013591508082111561254a57600080fd5b506125578782880161211b565b95989497509550505050565b600080600080600080600060c0888a03121561257e57600080fd5b87359650602088013595506040880135612597816121a9565b94506125a5606089016122f9565b93506080880135925060a088013567ffffffffffffffff8111156125c857600080fd5b6125d48a828b016121be565b989b979a50959850939692959293505050565b600080600080608085870312156125fd57600080fd5b8435935060208501359250612614604086016122f9565b9396929550929360600135925050565b6000806000806060858703121561263a57600080fd5b8435612645816121a9565b935060208501359250604085013567ffffffffffffffff81111561266857600080fd5b612557878288016121be565b634e487b7160e01b600052604160045260246000fd5b60008060006060848603121561269f57600080fd5b83356126aa816121a9565b925060208401359150604084013567ffffffffffffffff808211156126ce57600080fd5b818601915086601f8301126126e257600080fd5b8135818111156126f4576126f4612674565b604051601f8201601f19908116603f0116810190838211818310171561271c5761271c612674565b8160405282815289602084870101111561273557600080fd5b8260208601602083013760006020848301015280955050505050509250925092565b60006020828403121561276957600080fd5b8135612774816121a9565b9392505050565b6000806040838503121561278e57600080fd5b8235612799816121a9565b946020939093013593505050565b6020808252601d908201527f43616e6e6f742073657420617574686f72697a65642073656e64657273000000604082015260600190565b634e487b7160e01b600052603260045260246000fd5b634e487b7160e01b600052601160045260246000fd5b60006001820161281c5761281c6127f4565b5060010190565b8183823760009101908152919050565b60208082526013908201527226bab9ba103ab9b2902624a725903a37b5b2b760691b604082015260600190565b81835281816020850137506000828201602090810191909152601f909101601f19169091010190565b6001600160a01b038a81168252602082018a905260408201899052871660608201526001600160e01b03198616608082015260a0810185905260c0810184905261010060e082018190526000906128e38382018587612860565b9c9b505050505050505050505050565b60008251612905818460208701612255565b9190910192915050565b6001600160e01b031984168152818360048301376000910160040190815292915050565b81810381811115612946576129466127f4565b92915050565b60006020828403121561295e57600080fd5b8151801515811461277457600080fd5b60208082526035908201527f416d6f756e74207265717565737465642069732067726561746572207468616e60408201527420776974686472617761626c652062616c616e636560581b606082015260800190565b60018060a01b03851681528360208201526060604082015260006114b9606083018486612860565b8183526000602080850194508260005b85811015612a29578135612a0e816121a9565b6001600160a01b0316875295820195908201906001016129fb565b509495945050505050565b604081526000612a486040830185876129eb565b905060018060a01b0383166020830152949350505050565b634e487b7160e01b600052600160045260246000fd5b606081526000612a8a6060830187896129eb565b8281036020840152612a9d8186886129eb565b91505060018060a01b03831660408301529695505050505050565b602081526000612acc6020830184866129eb565b949350505050565b80820180821115612946576129466127f4565b600060208284031215612af957600080fd5b5051919050565b8082028115828204841417612946576129466127f456fea264697066735822122073caa4e20a43aaf9e378989d943cd5e3c6335f5fe2bd80d62d88b9591c9d37e264736f6c63430008130033",
  "linkReferences": {},
  "deployedLinkReferences": {}
}