{
  "_format": "hh-sol-artifact-1",
  "contractName": "RBACManager",
  "sourceName": "contracts/RBACManager.sol",
  "abi": [
    {
      "inputs": [
        {
          "internalType": "address",
          "name": "initialAdmin",
          "type": "address"
        }
      ],
      "stateMutability": "nonpayable",
      "type": "constructor"
    },
    {
      "anonymous": false,
      "inputs": [
        {
          "indexed": true,
          "internalType": "bytes4",
          "name": "fnSig",
          "type": "bytes4"
        },
        {
          "indexed": true,
          "internalType": "bytes32",
          "name": "role",
          "type": "bytes32"
        }
      ],
      "name": "FunctionRoleAssigned",
      "type": "event"
    },
    {
      "anonymous": false,
      "inputs": [
        {
          "indexed": true,
          "internalType": "bytes32",
          "name": "role",
          "type": "bytes32"
        },
        {
          "indexed": true,
          "internalType": "bytes32",
          "name": "previousAdminRole",
          "type": "bytes32"
        },
        {
          "indexed": true,
          "internalType": "bytes32",
          "name": "newAdminRole",
          "type": "bytes32"
        }
      ],
      "name": "RoleAdminChanged",
      "type": "event"
    },
    {
      "anonymous": false,
      "inputs": [
        {
          "indexed": true,
          "internalType": "bytes32",
          "name": "role",
          "type": "bytes32"
        },
        {
          "indexed": true,
          "internalType": "bytes32",
          "name": "adminRole",
          "type": "bytes32"
        }
      ],
      "name": "RoleCreated",
      "type": "event"
    },
    {
      "anonymous": false,
      "inputs": [
        {
          "indexed": true,
          "internalType": "bytes32",
          "name": "role",
          "type": "bytes32"
        },
        {
          "indexed": true,
          "internalType": "address",
          "name": "account",
          "type": "address"
        },
        {
          "indexed": true,
          "internalType": "address",
          "name": "sender",
          "type": "address"
        }
      ],
      "name": "RoleGranted",
      "type": "event"
    },
    {
      "anonymous": false,
      "inputs": [
        {
          "indexed": true,
          "internalType": "bytes32",
          "name": "role",
          "type": "bytes32"
        },
        {
          "indexed": true,
          "internalType": "address",
          "name": "account",
          "type": "address"
        },
        {
          "indexed": true,
          "internalType": "address",
          "name": "sender",
          "type": "address"
        }
      ],
      "name": "RoleRevoked",
      "type": "event"
    },
    {
      "inputs": [],
      "name": "ADMIN_ROLE",
      "outputs": [
        {
          "internalType": "bytes32",
          "name": "",
          "type": "bytes32"
        }
      ],
      "stateMutability": "view",
      "type": "function"
    },
    {
      "inputs": [],
      "name": "DEFAULT_ADMIN_ROLE",
      "outputs": [
        {
          "internalType": "bytes32",
          "name": "",
          "type": "bytes32"
        }
      ],
      "stateMutability": "view",
      "type": "function"
    },
    {
      "inputs": [],
      "name": "ORACLE_ROLE",
      "outputs": [
        {
          "internalType": "bytes32",
          "name": "",
          "type": "bytes32"
        }
      ],
      "stateMutability": "view",
      "type": "function"
    },
    {
      "inputs": [
        {
          "internalType": "string",
          "name": "roleName",
          "type": "string"
        },
        {
          "internalType": "bytes4",
          "name": "fnSig",
          "type": "bytes4"
        }
      ],
      "name": "assignFunctionRole",
      "outputs": [],
      "stateMutability": "nonpayable",
      "type": "function"
    },
    {
      "inputs": [
        {
          "internalType": "string",
          "name": "roleName",
          "type": "string"
        },
        {
          "internalType": "string",
          "name": "adminRoleName",
          "type": "string"
        }
      ],
      "name": "createRole",
      "outputs": [],
      "stateMutability": "nonpayable",
      "type": "function"
    },
    {
      "inputs": [
        {
          "internalType": "bytes4",
          "name": "",
          "type": "bytes4"
        }
      ],
      "name": "functionRoles",
      "outputs": [
        {
          "internalType": "bytes32",
          "name": "",
          "type": "bytes32"
        }
      ],
      "stateMutability": "view",
      "type": "function"
    },
    {
      "inputs": [
        {
          "internalType": "bytes32",
          "name": "role",
          "type": "bytes32"
        }
      ],
      "name": "getRoleAdmin",
      "outputs": [
        {
          "internalType": "bytes32",
          "name": "",
          "type": "bytes32"
        }
      ],
      "stateMutability": "view",
      "type": "function"
    },
    {
      "inputs": [
        {
          "internalType": "bytes32",
          "name": "role",
          "type": "bytes32"
        },
        {
          "internalType": "address",
          "name": "account",
          "type": "address"
        }
      ],
      "name": "grantRole",
      "outputs": [],
      "stateMutability": "nonpayable",
      "type": "function"
    },
    {
      "inputs": [
        {
          "internalType": "string",
          "name": "roleName",
          "type": "string"
        },
        {
          "internalType": "address",
          "name": "account",
          "type": "address"
        }
      ],
      "name": "grantRoleByName",
      "outputs": [],
      "stateMutability": "nonpayable",
      "type": "function"
    },
    {
      "inputs": [
        {
          "internalType": "bytes32",
          "name": "role",
          "type": "bytes32"
        },
        {
          "internalType": "address",
          "name": "account",
          "type": "address"
        }
      ],
      "name": "hasRole",
      "outputs": [
        {
          "internalType": "bool",
          "name": "",
          "type": "bool"
        }
      ],
      "stateMutability": "view",
      "type": "function"
    },
    {
      "inputs": [
        {
          "internalType": "bytes32",
          "name": "role",
          "type": "bytes32"
        },
        {
          "internalType": "address",
          "name": "account",
          "type": "address"
        }
      ],
      "name": "renounceRole",
      "outputs": [],
      "stateMutability": "nonpayable",
      "type": "function"
    },
    {
      "inputs": [
        {
          "internalType": "bytes32",
          "name": "role",
          "type": "bytes32"
        },
        {
          "internalType": "address",
          "name": "account",
          "type": "address"
        }
      ],
      "name": "revokeRole",
      "outputs": [],
      "stateMutability": "nonpayable",
      "type": "function"
    },
    {
      "inputs": [
        {
          "internalType": "bytes32",
          "name": "",
          "type": "bytes32"
        }
      ],
      "name": "roleAdmins",
      "outputs": [
        {
          "internalType": "bytes32",
          "name": "",
          "type": "bytes32"
        }
      ],
      "stateMutability": "view",
      "type": "function"
    },
    {
      "inputs": [
        {
          "internalType": "bytes4",
          "name": "interfaceId",
          "type": "bytes4"
        }
      ],
      "name": "supportsInterface",
      "outputs": [
        {
          "internalType": "bool",
          "name": "",
          "type": "bool"
        }
      ],
      "stateMutability": "view",
      "type": "function"
    }
  ],
  "bytecode": "0x60806040523480156200001157600080fd5b5060405162000f0538038062000f05833981016040819052620000349162000201565b6001600160a01b0381166200007f5760405162461bcd60e51b815260206004820152600d60248201526c24b73b30b634b21030b236b4b760991b604482015260640160405180910390fd5b6200008c60008262000106565b620000a860008051602062000ee5833981519152600062000116565b620000c360008051602062000ee58339815191528262000106565b5060008051602062000ee5833981519152600081905260016020527f50efbde2d46c37e9785f1791697f77e94bb7b701e19f1930a668820722d376945562000233565b62000112828262000161565b5050565b600082815260208190526040808220600101805490849055905190918391839186917fbd79b86ffe0ab8e8776151514217cd7cacd52c909f66475c3af44e129f0b00ff9190a4505050565b6000828152602081815260408083206001600160a01b038516845290915290205460ff1662000112576000828152602081815260408083206001600160a01b03851684529091529020805460ff19166001179055620001bd3390565b6001600160a01b0316816001600160a01b0316837f2f8788117e7eff1d82e926ec794901d17c78024a50270940304540a733656f0d60405160405180910390a45050565b6000602082840312156200021457600080fd5b81516001600160a01b03811681146200022c57600080fd5b9392505050565b610ca280620002436000396000f3fe608060405234801561001057600080fd5b50600436106100ea5760003560e01c806375b238fc1161008c578063a217fddf11610066578063a217fddf14610224578063a4dd6e2a1461022c578063d2192dbf1461023f578063d547741f1461025257600080fd5b806375b238fc146101ca5780638543210d146101f157806391d148541461021157600080fd5b80632918fa9b116100c85780632918fa9b1461016f5780632f2ff15d1461018457806336568abe146101975780635fcc08b0146101aa57600080fd5b806301ffc9a7146100ef57806307e2cea514610117578063248a9ca31461014c575b600080fd5b6101026100fd366004610942565b610265565b60405190151581526020015b60405180910390f35b61013e7f68e79a7bf1e0bc45d0a330c573bc367f9cf464fd326078812f301165fbda4ef181565b60405190815260200161010e565b61013e61015a36600461095d565b60009081526020819052604090206001015490565b61018261017d3660046109d6565b61029c565b005b610182610192366004610a2a565b61032c565b6101826101a5366004610a2a565b610356565b61013e6101b8366004610942565b60026020526000908152604090205481565b61013e7fa49807205ce4d355092ef5a8a18f56e8913cf4a201fbe287825b095693c2177581565b61013e6101ff36600461095d565b60016020526000908152604090205481565b61010261021f366004610a2a565b6103d4565b61013e600081565b61018261023a366004610a56565b6103fd565b61018261024d366004610aa1565b6104bf565b610182610260366004610a2a565b6105b1565b60006001600160e01b03198216637965db0b60e01b148061029657506301ffc9a760e01b6001600160e01b03198316145b92915050565b600083836040516102ae929190610b0d565b60408051918290039091206000818152600160205291909120549091506102d581336103d4565b61031b5760405162461bcd60e51b81526020600482015260126024820152712ab730baba3437b934bd32b21030b236b4b760711b60448201526064015b60405180910390fd5b61032582846105d6565b5050505050565b6000828152602081905260409020600101546103478161065a565b61035183836105d6565b505050565b6001600160a01b03811633146103c65760405162461bcd60e51b815260206004820152602f60248201527f416363657373436f6e74726f6c3a2063616e206f6e6c792072656e6f756e636560448201526e103937b632b9903337b91039b2b63360891b6064820152608401610312565b6103d08282610667565b5050565b6000918252602082815260408084206001600160a01b0393909316845291905290205460ff1690565b60006104088161065a565b6000848460405161041a929190610b0d565b60408051918290039091206000818152600160205291909120549091506104745760405162461bcd60e51b815260206004820152600e60248201526d149bdb19481d5b9919599a5b995960921b6044820152606401610312565b6001600160e01b03198316600081815260026020526040808220849055518392917f36caf2262016123f10d519299ba2899ba31402f9ebd4a11a7b1504764f94d1d191a35050505050565b60006104ca8161065a565b600085856040516104dc929190610b0d565b60405180910390209050600084846040516104f8929190610b0d565b604051908190039020905080158061051d575060008181526001602052604090205415155b6105605760405162461bcd60e51b815260206004820152601460248201527310591b5a5b881c9bdb19481d5b9919599a5b995960621b6044820152606401610312565b600082815260016020526040902081905561057b82826106cc565b604051819083907f6786272823b66932c118f5a0e0f9850eecfc19fb8b88e034ea00e27e3a1dace990600090a350505050505050565b6000828152602081905260409020600101546105cc8161065a565b6103518383610667565b6105e082826103d4565b6103d0576000828152602081815260408083206001600160a01b03851684529091529020805460ff191660011790556106163390565b6001600160a01b0316816001600160a01b0316837f2f8788117e7eff1d82e926ec794901d17c78024a50270940304540a733656f0d60405160405180910390a45050565b6106648133610717565b50565b61067182826103d4565b156103d0576000828152602081815260408083206001600160a01b0385168085529252808320805460ff1916905551339285917ff6391f5c32d9c69d2a47ea670b442974b53935d1edc7fd64eb21e047a839171b9190a45050565b600082815260208190526040808220600101805490849055905190918391839186917fbd79b86ffe0ab8e8776151514217cd7cacd52c909f66475c3af44e129f0b00ff9190a4505050565b61072182826103d4565b6103d05761072e81610770565b610739836020610782565b60405160200161074a929190610b41565b60408051601f198184030181529082905262461bcd60e51b825261031291600401610bb6565b60606102966001600160a01b03831660145b60606000610791836002610bff565b61079c906002610c16565b67ffffffffffffffff8111156107b4576107b4610c29565b6040519080825280601f01601f1916602001820160405280156107de576020820181803683370190505b509050600360fc1b816000815181106107f9576107f9610c3f565b60200101906001600160f81b031916908160001a905350600f60fb1b8160018151811061082857610828610c3f565b60200101906001600160f81b031916908160001a905350600061084c846002610bff565b610857906001610c16565b90505b60018111156108cf576f181899199a1a9b1b9c1cb0b131b232b360811b85600f166010811061088b5761088b610c3f565b1a60f81b8282815181106108a1576108a1610c3f565b60200101906001600160f81b031916908160001a90535060049490941c936108c881610c55565b905061085a565b50831561091e5760405162461bcd60e51b815260206004820181905260248201527f537472696e67733a20686578206c656e67746820696e73756666696369656e746044820152606401610312565b9392505050565b80356001600160e01b03198116811461093d57600080fd5b919050565b60006020828403121561095457600080fd5b61091e82610925565b60006020828403121561096f57600080fd5b5035919050565b60008083601f84011261098857600080fd5b50813567ffffffffffffffff8111156109a057600080fd5b6020830191508360208285010111156109b857600080fd5b9250929050565b80356001600160a01b038116811461093d57600080fd5b6000806000604084860312156109eb57600080fd5b833567ffffffffffffffff811115610a0257600080fd5b610a0e86828701610976565b9094509250610a219050602085016109bf565b90509250925092565b60008060408385031215610a3d57600080fd5b82359150610a4d602084016109bf565b90509250929050565b600080600060408486031215610a6b57600080fd5b833567ffffffffffffffff811115610a8257600080fd5b610a8e86828701610976565b9094509250610a21905060208501610925565b60008060008060408587031215610ab757600080fd5b843567ffffffffffffffff80821115610acf57600080fd5b610adb88838901610976565b90965094506020870135915080821115610af457600080fd5b50610b0187828801610976565b95989497509550505050565b8183823760009101908152919050565b60005b83811015610b38578181015183820152602001610b20565b50506000910152565b7f416363657373436f6e74726f6c3a206163636f756e7420000000000000000000815260008351610b79816017850160208801610b1d565b7001034b99036b4b9b9b4b733903937b6329607d1b6017918401918201528351610baa816028840160208801610b1d565b01602801949350505050565b6020815260008251806020840152610bd5816040850160208701610b1d565b601f01601f19169190910160400192915050565b634e487b7160e01b600052601160045260246000fd5b808202811582820484141761029657610296610be9565b8082018082111561029657610296610be9565b634e487b7160e01b600052604160045260246000fd5b634e487b7160e01b600052603260045260246000fd5b600081610c6457610c64610be9565b50600019019056fea264697066735822122009145d9e62623b52f9ecd0b8e3b9d2fd297687f14c81dcdd6cefc3179a2738de64736f6c63430008130033a49807205ce4d355092ef5a8a18f56e8913cf4a201fbe287825b095693c21775",
  "linkReferences": {},
  "deployedLinkReferences": {}
}