{
  "_format": "hh-sol-artifact-1",
  "contractName": "RBACManager",
  "sourceName": "contracts/RBACManager.sol",
  "abi": [
    {
      "inputs": [
        {
          "internalType": "address",
          "name": "initialAdmin",
          "type": "address"
        }
      ],
      "stateMutability": "nonpayable",
      "type": "constructor"
    },
    {
      "anonymous": false,
      "inputs": [
        {
          "indexed": true,
          "internalType": "bytes4",
          "name": "fnSig",
          "type": "bytes4"
        },
        {
          "indexed": true,
          "internalType": "bytes32",
          "name": "role",
          "type": "bytes32"
        }
      ],
      "name": "FunctionRoleAssigned",
      "type": "event"
    },
    {
      "anonymous": false,
      "inputs": [
        {
          "indexed": true,
          "internalType": "bytes32",
          "name": "role",
          "type": "bytes32"
        },
        {
          "indexed": true,
          "internalType": "bytes32",
          "name": "previousAdminRole",
          "type": "bytes32"
        },
        {
          "indexed": true,
          "internalType": "bytes32",
          "name": "newAdminRole",
          "type": "bytes32"
        }
      ],
      "name": "RoleAdminChanged",
      "type": "event"
    },
    {
      "anonymous": false,
      "inputs": [
        {
          "indexed": true,
          "internalType": "bytes32",
          "name": "role",
          "type": "bytes32"
        },
        {
          "indexed": true,
          "internalType": "bytes32",
          "name": "adminRole",
          "type": "bytes32"
        }
      ],
      "name": "RoleCreated",
      "type": "event"
    },
    {
      "anonymous": false,
      "inputs": [
        {
          "indexed": true,
          "internalType": "bytes32",
          "name": "role",
          "type": "bytes32"
        },
        {
          "indexed": true,
          "internalType": "address",
          "name": "account",
          "type": "address"
        },
        {
          "indexed": true,
          "internalType": "address",
          "name": "sender",
          "type": "address"
        }
      ],
      "name": "RoleGranted",
      "type": "event"
    },
    {
      "anonymous": false,
      "inputs": [
        {
          "indexed": true,
          "internalType": "bytes32",
          "name": "role",
          "type": "bytes32"
        },
        {
          "indexed": true,
          "internalType": "address",
          "name": "account",
          "type": "address"
        },
        {
          "indexed": true,
          "internalType": "address",
          "name": "sender",
          "type": "address"
        }
      ],
      "name": "RoleRevoked",
      "type": "event"
    },
    {
      "inputs": [],
      "name": "ADMIN_ROLE",
      "outputs": [
        {
          "internalType": "bytes32",
          "name": "",
          "type": "bytes32"
        }
      ],
      "stateMutability": "view",
      "type": "function"
    },
    {
      "inputs": [],
      "name": "DEFAULT_ADMIN_ROLE",
      "outputs": [
        {
          "internalType": "bytes32",
          "name": "",
          "type": "bytes32"
        }
      ],
      "stateMutability": "view",
      "type": "function"
    },
    {
      "inputs": [
        {
          "internalType": "string",
          "name": "roleName",
          "type": "string"
        },
        {
          "internalType": "bytes4",
          "name": "fnSig",
          "type": "bytes4"
        }
      ],
      "name": "assignFunctionRole",
      "outputs": [],
      "stateMutability": "nonpayable",
      "type": "function"
    },
    {
      "inputs": [
        {
          "internalType": "string",
          "name": "roleName",
          "type": "string"
        },
        {
          "internalType": "string",
          "name": "adminRoleName",
          "type": "string"
        }
      ],
      "name": "createRole",
      "outputs": [],
      "stateMutability": "nonpayable",
      "type": "function"
    },
    {
      "inputs": [
        {
          "internalType": "bytes4",
          "name": "",
          "type": "bytes4"
        }
      ],
      "name": "functionRoles",
      "outputs": [
        {
          "internalType": "bytes32",
          "name": "",
          "type": "bytes32"
        }
      ],
      "stateMutability": "view",
      "type": "function"
    },
    {
      "inputs": [
        {
          "internalType": "bytes32",
          "name": "role",
          "type": "bytes32"
        }
      ],
      "name": "getRoleAdmin",
      "outputs": [
        {
          "internalType": "bytes32",
          "name": "",
          "type": "bytes32"
        }
      ],
      "stateMutability": "view",
      "type": "function"
    },
    {
      "inputs": [
        {
          "internalType": "bytes32",
          "name": "role",
          "type": "bytes32"
        },
        {
          "internalType": "address",
          "name": "account",
          "type": "address"
        }
      ],
      "name": "grantRole",
      "outputs": [],
      "stateMutability": "nonpayable",
      "type": "function"
    },
    {
      "inputs": [
        {
          "internalType": "string",
          "name": "roleName",
          "type": "string"
        },
        {
          "internalType": "address",
          "name": "account",
          "type": "address"
        }
      ],
      "name": "grantRoleByName",
      "outputs": [],
      "stateMutability": "nonpayable",
      "type": "function"
    },
    {
      "inputs": [
        {
          "internalType": "bytes32",
          "name": "role",
          "type": "bytes32"
        },
        {
          "internalType": "address",
          "name": "account",
          "type": "address"
        }
      ],
      "name": "hasRole",
      "outputs": [
        {
          "internalType": "bool",
          "name": "",
          "type": "bool"
        }
      ],
      "stateMutability": "view",
      "type": "function"
    },
    {
      "inputs": [
        {
          "internalType": "bytes32",
          "name": "role",
          "type": "bytes32"
        },
        {
          "internalType": "address",
          "name": "account",
          "type": "address"
        }
      ],
      "name": "renounceRole",
      "outputs": [],
      "stateMutability": "nonpayable",
      "type": "function"
    },
    {
      "inputs": [
        {
          "internalType": "bytes32",
          "name": "role",
          "type": "bytes32"
        },
        {
          "internalType": "address",
          "name": "account",
          "type": "address"
        }
      ],
      "name": "revokeRole",
      "outputs": [],
      "stateMutability": "nonpayable",
      "type": "function"
    },
    {
      "inputs": [
        {
          "internalType": "bytes32",
          "name": "",
          "type": "bytes32"
        }
      ],
      "name": "roleAdmins",
      "outputs": [
        {
          "internalType": "bytes32",
          "name": "",
          "type": "bytes32"
        }
      ],
      "stateMutability": "view",
      "type": "function"
    },
    {
      "inputs": [
        {
          "internalType": "bytes4",
          "name": "interfaceId",
          "type": "bytes4"
        }
      ],
      "name": "supportsInterface",
      "outputs": [
        {
          "internalType": "bool",
          "name": "",
          "type": "bool"
        }
      ],
      "stateMutability": "view",
      "type": "function"
    }
  ],
  "bytecode": "0x60806040523480156200001157600080fd5b5060405162000ec338038062000ec3833981016040819052620000349162000201565b6001600160a01b0381166200007f5760405162461bcd60e51b815260206004820152600d60248201526c24b73b30b634b21030b236b4b760991b604482015260640160405180910390fd5b6200008c60008262000106565b620000a860008051602062000ea3833981519152600062000116565b620000c360008051602062000ea38339815191528262000106565b5060008051602062000ea3833981519152600081905260016020527f50efbde2d46c37e9785f1791697f77e94bb7b701e19f1930a668820722d376945562000233565b62000112828262000161565b5050565b600082815260208190526040808220600101805490849055905190918391839186917fbd79b86ffe0ab8e8776151514217cd7cacd52c909f66475c3af44e129f0b00ff9190a4505050565b6000828152602081815260408083206001600160a01b038516845290915290205460ff1662000112576000828152602081815260408083206001600160a01b03851684529091529020805460ff19166001179055620001bd3390565b6001600160a01b0316816001600160a01b0316837f2f8788117e7eff1d82e926ec794901d17c78024a50270940304540a733656f0d60405160405180910390a45050565b6000602082840312156200021457600080fd5b81516001600160a01b03811681146200022c57600080fd5b9392505050565b610c6080620002436000396000f3fe608060405234801561001057600080fd5b50600436106100cf5760003560e01c806375b238fc1161008c578063a217fddf11610066578063a217fddf146101e2578063a4dd6e2a146101ea578063d2192dbf146101fd578063d547741f1461021057600080fd5b806375b238fc146101885780638543210d146101af57806391d14854146101cf57600080fd5b806301ffc9a7146100d4578063248a9ca3146100fc5780632918fa9b1461012d5780632f2ff15d1461014257806336568abe146101555780635fcc08b014610168575b600080fd5b6100e76100e2366004610900565b610223565b60405190151581526020015b60405180910390f35b61011f61010a36600461091b565b60009081526020819052604090206001015490565b6040519081526020016100f3565b61014061013b366004610994565b61025a565b005b6101406101503660046109e8565b6102ea565b6101406101633660046109e8565b610314565b61011f610176366004610900565b60026020526000908152604090205481565b61011f7fa49807205ce4d355092ef5a8a18f56e8913cf4a201fbe287825b095693c2177581565b61011f6101bd36600461091b565b60016020526000908152604090205481565b6100e76101dd3660046109e8565b610392565b61011f600081565b6101406101f8366004610a14565b6103bb565b61014061020b366004610a5f565b61047d565b61014061021e3660046109e8565b61056f565b60006001600160e01b03198216637965db0b60e01b148061025457506301ffc9a760e01b6001600160e01b03198316145b92915050565b6000838360405161026c929190610acb565b60408051918290039091206000818152600160205291909120549091506102938133610392565b6102d95760405162461bcd60e51b81526020600482015260126024820152712ab730baba3437b934bd32b21030b236b4b760711b60448201526064015b60405180910390fd5b6102e38284610594565b5050505050565b60008281526020819052604090206001015461030581610618565b61030f8383610594565b505050565b6001600160a01b03811633146103845760405162461bcd60e51b815260206004820152602f60248201527f416363657373436f6e74726f6c3a2063616e206f6e6c792072656e6f756e636560448201526e103937b632b9903337b91039b2b63360891b60648201526084016102d0565b61038e8282610625565b5050565b6000918252602082815260408084206001600160a01b0393909316845291905290205460ff1690565b60006103c681610618565b600084846040516103d8929190610acb565b60408051918290039091206000818152600160205291909120549091506104325760405162461bcd60e51b815260206004820152600e60248201526d149bdb19481d5b9919599a5b995960921b60448201526064016102d0565b6001600160e01b03198316600081815260026020526040808220849055518392917f36caf2262016123f10d519299ba2899ba31402f9ebd4a11a7b1504764f94d1d191a35050505050565b600061048881610618565b6000858560405161049a929190610acb565b60405180910390209050600084846040516104b6929190610acb565b60405190819003902090508015806104db575060008181526001602052604090205415155b61051e5760405162461bcd60e51b815260206004820152601460248201527310591b5a5b881c9bdb19481d5b9919599a5b995960621b60448201526064016102d0565b6000828152600160205260409020819055610539828261068a565b604051819083907f6786272823b66932c118f5a0e0f9850eecfc19fb8b88e034ea00e27e3a1dace990600090a350505050505050565b60008281526020819052604090206001015461058a81610618565b61030f8383610625565b61059e8282610392565b61038e576000828152602081815260408083206001600160a01b03851684529091529020805460ff191660011790556105d43390565b6001600160a01b0316816001600160a01b0316837f2f8788117e7eff1d82e926ec794901d17c78024a50270940304540a733656f0d60405160405180910390a45050565b61062281336106d5565b50565b61062f8282610392565b1561038e576000828152602081815260408083206001600160a01b0385168085529252808320805460ff1916905551339285917ff6391f5c32d9c69d2a47ea670b442974b53935d1edc7fd64eb21e047a839171b9190a45050565b600082815260208190526040808220600101805490849055905190918391839186917fbd79b86ffe0ab8e8776151514217cd7cacd52c909f66475c3af44e129f0b00ff9190a4505050565b6106df8282610392565b61038e576106ec8161072e565b6106f7836020610740565b604051602001610708929190610aff565b60408051601f198184030181529082905262461bcd60e51b82526102d091600401610b74565b60606102546001600160a01b03831660145b6060600061074f836002610bbd565b61075a906002610bd4565b67ffffffffffffffff81111561077257610772610be7565b6040519080825280601f01601f19166020018201604052801561079c576020820181803683370190505b509050600360fc1b816000815181106107b7576107b7610bfd565b60200101906001600160f81b031916908160001a905350600f60fb1b816001815181106107e6576107e6610bfd565b60200101906001600160f81b031916908160001a905350600061080a846002610bbd565b610815906001610bd4565b90505b600181111561088d576f181899199a1a9b1b9c1cb0b131b232b360811b85600f166010811061084957610849610bfd565b1a60f81b82828151811061085f5761085f610bfd565b60200101906001600160f81b031916908160001a90535060049490941c9361088681610c13565b9050610818565b5083156108dc5760405162461bcd60e51b815260206004820181905260248201527f537472696e67733a20686578206c656e67746820696e73756666696369656e7460448201526064016102d0565b9392505050565b80356001600160e01b0319811681146108fb57600080fd5b919050565b60006020828403121561091257600080fd5b6108dc826108e3565b60006020828403121561092d57600080fd5b5035919050565b60008083601f84011261094657600080fd5b50813567ffffffffffffffff81111561095e57600080fd5b60208301915083602082850101111561097657600080fd5b9250929050565b80356001600160a01b03811681146108fb57600080fd5b6000806000604084860312156109a957600080fd5b833567ffffffffffffffff8111156109c057600080fd5b6109cc86828701610934565b90945092506109df90506020850161097d565b90509250925092565b600080604083850312156109fb57600080fd5b82359150610a0b6020840161097d565b90509250929050565b600080600060408486031215610a2957600080fd5b833567ffffffffffffffff811115610a4057600080fd5b610a4c86828701610934565b90945092506109df9050602085016108e3565b60008060008060408587031215610a7557600080fd5b843567ffffffffffffffff80821115610a8d57600080fd5b610a9988838901610934565b90965094506020870135915080821115610ab257600080fd5b50610abf87828801610934565b95989497509550505050565b8183823760009101908152919050565b60005b83811015610af6578181015183820152602001610ade565b50506000910152565b7f416363657373436f6e74726f6c3a206163636f756e7420000000000000000000815260008351610b37816017850160208801610adb565b7001034b99036b4b9b9b4b733903937b6329607d1b6017918401918201528351610b68816028840160208801610adb565b01602801949350505050565b6020815260008251806020840152610b93816040850160208701610adb565b601f01601f19169190910160400192915050565b634e487b7160e01b600052601160045260246000fd5b808202811582820484141761025457610254610ba7565b8082018082111561025457610254610ba7565b634e487b7160e01b600052604160045260246000fd5b634e487b7160e01b600052603260045260246000fd5b600081610c2257610c22610ba7565b50600019019056fea264697066735822122023508601fc6608229027d3656b02b0f4923cea609c22dae168a525b1a9c7b97364736f6c63430008110033a49807205ce4d355092ef5a8a18f56e8913cf4a201fbe287825b095693c21775",
  "linkReferences": {},
  "deployedLinkReferences": {}
}